{
  "_format": "hh-sol-artifact-1",
  "contractName": "MathLib",
  "sourceName": "src/libraries/MathLib.sol",
  "abi": [
    {
      "inputs": [],
      "name": "BASIS_POINTS",
      "outputs": [
        {
          "internalType": "uint256",
          "name": "",
          "type": "uint256"
        }
      ],
      "stateMutability": "view",
      "type": "function"
    },
    {
      "inputs": [],
      "name": "WAD",
      "outputs": [
        {
          "internalType": "uint256",
          "name": "",
          "type": "uint256"
        }
      ],
      "stateMutability": "view",
      "type": "function"
    },
    {
      "inputs": [
        {
          "internalType": "uint256",
          "name": "_baseTokenQtyDesired",
          "type": "uint256"
        },
        {
          "internalType": "uint256",
          "name": "_baseTokenQtyMin",
          "type": "uint256"
        },
        {
          "internalType": "uint256",
          "name": "_baseTokenReserveQty",
          "type": "uint256"
        },
        {
          "internalType": "uint256",
          "name": "_totalSupplyOfLiquidityTokens",
          "type": "uint256"
        },
        {
          "components": [
            {
              "internalType": "uint256",
              "name": "baseTokenReserveQty",
              "type": "uint256"
            },
            {
              "internalType": "uint256",
              "name": "quoteTokenReserveQty",
              "type": "uint256"
            },
            {
              "internalType": "uint256",
              "name": "kLast",
              "type": "uint256"
            }
          ],
          "internalType": "struct MathLib.InternalBalances",
          "name": "_internalBalances",
          "type": "tuple"
        }
      ],
      "name": "calculateAddBaseTokenLiquidityQuantities",
      "outputs": [
        {
          "internalType": "uint256",
          "name": "baseTokenQty",
          "type": "uint256"
        },
        {
          "internalType": "uint256",
          "name": "liquidityTokenQty",
          "type": "uint256"
        }
      ],
      "stateMutability": "view",
      "type": "function"
    },
    {
      "inputs": [
        {
          "internalType": "uint256",
          "name": "_totalSupplyOfLiquidityTokens",
          "type": "uint256"
        },
        {
          "components": [
            {
              "internalType": "uint256",
              "name": "baseTokenReserveQty",
              "type": "uint256"
            },
            {
              "internalType": "uint256",
              "name": "quoteTokenReserveQty",
              "type": "uint256"
            },
            {
              "internalType": "uint256",
              "name": "kLast",
              "type": "uint256"
            }
          ],
          "internalType": "struct MathLib.InternalBalances",
          "name": "_internalBalances",
          "type": "tuple"
        }
      ],
      "name": "calculateLiquidityTokenFees",
      "outputs": [
        {
          "internalType": "uint256",
          "name": "liquidityTokenFeeQty",
          "type": "uint256"
        }
      ],
      "stateMutability": "pure",
      "type": "function"
    },
    {
      "inputs": [
        {
          "internalType": "uint256",
          "name": "_totalSupplyOfLiquidityTokens",
          "type": "uint256"
        },
        {
          "internalType": "uint256",
          "name": "_quoteTokenQty",
          "type": "uint256"
        },
        {
          "internalType": "uint256",
          "name": "_quoteTokenReserveBalance",
          "type": "uint256"
        }
      ],
      "name": "calculateLiquidityTokenQtyForDoubleAssetEntry",
      "outputs": [
        {
          "internalType": "uint256",
          "name": "liquidityTokenQty",
          "type": "uint256"
        }
      ],
      "stateMutability": "pure",
      "type": "function"
    },
    {
      "inputs": [
        {
          "internalType": "uint256",
          "name": "_baseTokenReserveBalance",
          "type": "uint256"
        },
        {
          "internalType": "uint256",
          "name": "_totalSupplyOfLiquidityTokens",
          "type": "uint256"
        },
        {
          "internalType": "uint256",
          "name": "_tokenQtyAToAdd",
          "type": "uint256"
        },
        {
          "internalType": "uint256",
          "name": "_internalTokenAReserveQty",
          "type": "uint256"
        },
        {
          "internalType": "uint256",
          "name": "_tokenBDecayChange",
          "type": "uint256"
        },
        {
          "internalType": "uint256",
          "name": "_tokenBDecay",
          "type": "uint256"
        },
        {
          "internalType": "uint256",
          "name": "_omega",
          "type": "uint256"
        }
      ],
      "name": "calculateLiquidityTokenQtyForSingleAssetEntry",
      "outputs": [
        {
          "internalType": "uint256",
          "name": "liquidityTokenQty",
          "type": "uint256"
        }
      ],
      "stateMutability": "view",
      "type": "function"
    },
    {
      "inputs": [
        {
          "internalType": "uint256",
          "name": "_tokenAQty",
          "type": "uint256"
        },
        {
          "internalType": "uint256",
          "name": "_tokenAReserveQty",
          "type": "uint256"
        },
        {
          "internalType": "uint256",
          "name": "_tokenBReserveQty",
          "type": "uint256"
        }
      ],
      "name": "calculateQty",
      "outputs": [
        {
          "internalType": "uint256",
          "name": "tokenBQty",
          "type": "uint256"
        }
      ],
      "stateMutability": "pure",
      "type": "function"
    },
    {
      "inputs": [
        {
          "internalType": "uint256",
          "name": "_tokenASwapQty",
          "type": "uint256"
        },
        {
          "internalType": "uint256",
          "name": "_tokenAReserveQty",
          "type": "uint256"
        },
        {
          "internalType": "uint256",
          "name": "_tokenBReserveQty",
          "type": "uint256"
        },
        {
          "internalType": "uint256",
          "name": "_liquidityFeeInBasisPoints",
          "type": "uint256"
        }
      ],
      "name": "calculateQtyToReturnAfterFees",
      "outputs": [
        {
          "internalType": "uint256",
          "name": "qtyToReturn",
          "type": "uint256"
        }
      ],
      "stateMutability": "pure",
      "type": "function"
    },
    {
      "inputs": [
        {
          "internalType": "uint256",
          "name": "a",
          "type": "uint256"
        },
        {
          "internalType": "uint256",
          "name": "b",
          "type": "uint256"
        }
      ],
      "name": "diff",
      "outputs": [
        {
          "internalType": "uint256",
          "name": "",
          "type": "uint256"
        }
      ],
      "stateMutability": "pure",
      "type": "function"
    },
    {
      "inputs": [
        {
          "internalType": "uint256",
          "name": "_baseTokenReserveQty",
          "type": "uint256"
        },
        {
          "components": [
            {
              "internalType": "uint256",
              "name": "baseTokenReserveQty",
              "type": "uint256"
            },
            {
              "internalType": "uint256",
              "name": "quoteTokenReserveQty",
              "type": "uint256"
            },
            {
              "internalType": "uint256",
              "name": "kLast",
              "type": "uint256"
            }
          ],
          "internalType": "struct MathLib.InternalBalances",
          "name": "_internalBalances",
          "type": "tuple"
        }
      ],
      "name": "isSufficientDecayPresent",
      "outputs": [
        {
          "internalType": "bool",
          "name": "",
          "type": "bool"
        }
      ],
      "stateMutability": "pure",
      "type": "function"
    },
    {
      "inputs": [
        {
          "internalType": "uint256",
          "name": "a",
          "type": "uint256"
        },
        {
          "internalType": "uint256",
          "name": "n",
          "type": "uint256"
        }
      ],
      "name": "roundToNearest",
      "outputs": [
        {
          "internalType": "uint256",
          "name": "",
          "type": "uint256"
        }
      ],
      "stateMutability": "pure",
      "type": "function"
    },
    {
      "inputs": [
        {
          "internalType": "uint256",
          "name": "a",
          "type": "uint256"
        },
        {
          "internalType": "uint256",
          "name": "b",
          "type": "uint256"
        }
      ],
      "name": "wDiv",
      "outputs": [
        {
          "internalType": "uint256",
          "name": "",
          "type": "uint256"
        }
      ],
      "stateMutability": "pure",
      "type": "function"
    },
    {
      "inputs": [
        {
          "internalType": "uint256",
          "name": "a",
          "type": "uint256"
        },
        {
          "internalType": "uint256",
          "name": "b",
          "type": "uint256"
        }
      ],
      "name": "wMul",
      "outputs": [
        {
          "internalType": "uint256",
          "name": "",
          "type": "uint256"
        }
      ],
      "stateMutability": "pure",
      "type": "function"
    }
  ],
  "bytecode": "0x611bdb61003a600b82828239805160001a60731461002d57634e487b7160e01b600052600060045260246000fd5b30600052607381538281f3fe73000000000000000000000000000000000000000030146080604052600436106101405760003560e01c80639d372a7b116100bc578063c131f4171161008b578063cb11d2c611610070578063cb11d2c614610318578063e1f1c4a714610338578063ede3df671461034157600080fd5b8063c131f417146102d5578063ca7c6a02146102f557600080fd5b80639d372a7b1461023c5780639e4fa2041461028f578063af22e864146102a2578063bd244c35146102c257600080fd5b8063578aefbb116101135780636a146024116100f85780636a146024146102075780636cb4024b146102165780638f5e514a1461022957600080fd5b8063578aefbb146101cc5780635b3cce64146101f457600080fd5b806302af65fa1461014557806318e2e8221461018557806330ed1f5d146101a6578063542f45b2146101b9575b600080fd5b81801561015157600080fd5b5061016561016036600461197a565b610354565b604080519384526020840192909252908201526060015b60405180910390f35b6101986101933660046119c5565b6104c8565b60405190815260200161017c565b6101986101b4366004611865565b6107f2565b6101986101c7366004611886565b61082f565b6101df6101da3660046118f7565b61092d565b6040805192835260208301919091520161017c565b610198610202366004611865565b610b5e565b610198670de0b6b3a764000081565b610198610224366004611839565b610b7e565b610198610237366004611865565b610c01565b81801561024857600080fd5b5061025c6102573660046119df565b610c25565b60405161017c91908151815260208083015190820152604080830151908201526060918201519181019190915260800190565b61019861029d366004611886565b61104e565b8180156102ae57600080fd5b506101986102bd3660046118b1565b61105b565b6101986102d0366004611865565b6111b4565b8180156102e157600080fd5b506101986102f0366004611940565b6111e1565b610308610303366004611839565b6113a2565b604051901515815260200161017c565b81801561032457600080fd5b506101df610333366004611940565b6113ec565b61019861271081565b61019861034f3660046118e2565b6115b1565b60008060008061036d8b8660000154876001015461082f565b90508981116103f057878110156103e5576040517f08c379a000000000000000000000000000000000000000000000000000000000815260206004820152601f60248201527f4d6174684c69623a20494e53554646494349454e545f51554f54455f5154590060448201526064015b60405180910390fd5b8a9350809250610477565b60006104058b8760010154886000015461082f565b905089811015610471576040517f08c379a000000000000000000000000000000000000000000000000000000000815260206004820152601e60248201527f4d6174684c69623a20494e53554646494349454e545f424153455f515459000060448201526064016103dc565b93508992505b61048286848961104e565b9150838560000160008282546104989190611ad1565b92505081905550828560010160008282546104b39190611ad1565b92505081905550509750975097945050505050565b60006105086040518060400160405280600d81526020017f736f6c6964697479206c69623a00000000000000000000000000000000000000815250611601565b6105476040518060400160405280601a81526020017f5f62617365546f6b656e5265736572766542616c616e63653a2000000000000081525089611693565b6105866040518060400160405280601f81526020017f5f746f74616c537570706c794f664c6971756964697479546f6b656e733a200081525088611693565b6105c56040518060400160405280601181526020017f5f746f6b656e51747941546f4164643a2000000000000000000000000000000081525087611693565b6106046040518060400160405280601b81526020017f5f696e7465726e616c546f6b656e41526573657276655174793a20000000000081525086611693565b6106436040518060400160405280601481526020017f5f746f6b656e4244656361794368616e67653a2000000000000000000000000081525085611693565b6106826040518060400160405280600e81526020017f5f746f6b656e4244656361793a2000000000000000000000000000000000000081525084611693565b6106c16040518060400160405280600881526020017f5f6f6d6567613a2000000000000000000000000000000000000000000000000081525083611693565b60006106cd8984610b5e565b905061070e6040518060400160405280600881526020017f77526174696f3a2000000000000000000000000000000000000000000000000081525082611693565b600061071a8783611ad1565b905061075b6040518060400160405280600d81526020017f64656e6f6d696e61746f723a200000000000000000000000000000000000000081525082611693565b60006107678983610b5e565b90506107a86040518060400160405280600881526020017f7747616d6d613a2000000000000000000000000000000000000000000000000081525082611693565b670de0b6b3a76400006107d96107c76107c1838e611b22565b846107f2565b61020284670de0b6b3a7640000611b5f565b6107e39190611ae9565b9b9a5050505050505050505050565b6000670de0b6b3a7640000610808600282611ae9565b6108128486611b22565b61081c9190611ad1565b6108269190611ae9565b90505b92915050565b600080841161089a576040517f08c379a000000000000000000000000000000000000000000000000000000000815260206004820152601960248201527f4d6174684c69623a20494e53554646494349454e545f5154590000000000000060448201526064016103dc565b6000831180156108aa5750600082115b610910576040517f08c379a000000000000000000000000000000000000000000000000000000000815260206004820152601f60248201527f4d6174684c69623a20494e53554646494349454e545f4c49515549444954590060448201526064016103dc565b8261091b8386611b22565b6109259190611ae9565b949350505050565b60008060008584600001516109429190611b5f565b90508087106109ad576040517f08c379a000000000000000000000000000000000000000000000000000000000815260206004820152601b60248201527f4d6174684c69623a20494e53554646494349454e545f4445434159000000000060448201526064016103dc565b808811156109bd578092506109c1565b8792505b60006109d585602001518660000151610b5e565b90506000670de0b6b3a76400006109fd6109ef8488611b22565b670de0b6b3a76400006111b4565b610a079190611ae9565b905060008111610a99576040517f08c379a000000000000000000000000000000000000000000000000000000000815260206004820152602560248201527f4d6174684c69623a20494e53554646494349454e545f4348414e47455f494e5f60448201527f444543415900000000000000000000000000000000000000000000000000000060648201526084016103dc565b6000670de0b6b3a7640000610aae8486611b22565b610ab89190611ae9565b905060008111610b24576040517f08c379a000000000000000000000000000000000000000000000000000000000815260206004820152601760248201527f4d6174684c69623a204e4f5f51554f54455f444543415900000000000000000060448201526064016103dc565b6000610b3888600001518960200151610b5e565b9050610b4d8a8a898b600001518787876104c8565b955050505050509550959350505050565b600081610b6c600282611ae9565b610812670de0b6b3a764000086611b22565b600080610b9d83602001518460000151610b989190611b22565b611728565b90506000610bae8460400151611728565b905080821115610bf9576000610bc48284611b5f565b610bce9087611b22565b9050600082610bde856005611b22565b610be89190611ad1565b9050610bf48183611ae9565b945050505b505092915050565b6000818310610c1b57610c148284611b5f565b9050610829565b6108268383611b5f565b610c506040518060800160405280600081526020016000815260200160008152602001600081525090565b8215610ece57604080516060810182528354815260018401546020820152600284015491810191909152610c85908490610b7e565b60608201819052610c969084611ad1565b9250610ccb858360405180606001604052908160008201548152602001600182015481526020016002820154815250506113a2565b15610eae5760008060008460000154881115610cf957610cef8b60008a89896113ec565b9092509050610d36565b610d308c60008a8989604051806060016040529081600082015481526020016001820154815260200160028201548152505061092d565b90935090505b8a82108015610d4457508b83105b15610d8a57610d7d610d56848e611b5f565b610d60848e611b5f565b600080610d6d878d611ad1565b610d77878d611ad1565b8b610354565b6040870152602086015284525b8284600001818151610d9c9190611ad1565b905250602084018051839190610db3908390611ad1565b905250604084018051829190610dca908390611ad1565b90525083518a1115610e38576040517f08c379a000000000000000000000000000000000000000000000000000000000815260206004820152601e60248201527f4d6174684c69623a20494e53554646494349454e545f424153455f515459000060448201526064016103dc565b8884602001511015610ea6576040517f08c379a000000000000000000000000000000000000000000000000000000000815260206004820152601f60248201527f4d6174684c69623a20494e53554646494349454e545f51554f54455f5154590060448201526064016103dc565b505050611042565b610ebd89898989888888610354565b604084015260208301528152611042565b60008911610f5e576040517f08c379a000000000000000000000000000000000000000000000000000000000815260206004820152602660248201527f4d6174684c69623a20494e53554646494349454e545f424153455f5154595f4460448201527f455349524544000000000000000000000000000000000000000000000000000060648201526084016103dc565b60008811610fee576040517f08c379a000000000000000000000000000000000000000000000000000000000815260206004820152602760248201527f4d6174684c69623a20494e53554646494349454e545f51554f54455f5154595f60448201527f444553495245440000000000000000000000000000000000000000000000000060648201526084016103dc565b88815260208101889052611005610b98898b611b22565b604082015280518254839060009061101e908490611ad1565b9091555050602081015160018301805460009061103c908490611ad1565b90915550505b98975050505050505050565b60008161091b8585611b22565b6000808511801561106c5750600084115b6110d2576040517f08c379a000000000000000000000000000000000000000000000000000000000815260206004820152601f60248201527f4d6174684c69623a20494e53554646494349454e545f544f4b454e5f5154590060448201526064016103dc565b6110e68583600001548460010154866115b1565b9050838111611177576040517f08c379a000000000000000000000000000000000000000000000000000000000815260206004820152602560248201527f4d6174684c69623a20494e53554646494349454e545f51554f54455f544f4b4560448201527f4e5f51545900000000000000000000000000000000000000000000000000000060648201526084016103dc565b8482600001600082825461118b9190611ad1565b92505081905550808260010160008282546111a69190611b5f565b909155509095945050505050565b600081806111c3600282611ae9565b6111cd9086611ad1565b6111d79190611ae9565b6108269190611b22565b600080841180156111f25750815415155b61127d576040517f08c379a0000000000000000000000000000000000000000000000000000000008152602060048201526024808201527f4d6174684c69623a20494e53554646494349454e545f424153455f544f4b454e60448201527f5f5154590000000000000000000000000000000000000000000000000000000060648201526084016103dc565b81548410156112bf57600061129a83600001548460010154610b5e565b905060006112a88683610b5e565b90506112b6888288886115b1565b925050506112d6565b6112d38683600101548460000154866115b1565b90505b848111611364576040517f08c379a0000000000000000000000000000000000000000000000000000000008152602060048201526024808201527f4d6174684c69623a20494e53554646494349454e545f424153455f544f4b454e60448201527f5f5154590000000000000000000000000000000000000000000000000000000060648201526084016103dc565b808260000160008282546113789190611b5f565b92505081905550858260010160008282546113939190611ad1565b90915550909695505050505050565b6000670de0b6b3a76400006113e3670de0b6b3a76400006113c7868660000151610c01565b6113d19190611b22565b61020285600001518660200151610b5e565b10159392505050565b60008060008360000154866114019190611b5f565b9050600061141785600001548660010154610b5e565b905060006114258383610b5e565b9050808910611490576040517f08c379a000000000000000000000000000000000000000000000000000000000815260206004820152601b60248201527f4d6174684c69623a20494e53554646494349454e545f4445434159000000000060448201526064016103dc565b808a11156114a0578094506114a4565b8994505b6000670de0b6b3a76400006114bc6109ef8589611b22565b6114c69190611ae9565b905060008111611558576040517f08c379a000000000000000000000000000000000000000000000000000000000815260206004820152602560248201527f4d6174684c69623a20494e53554646494349454e545f4348414e47455f494e5f60448201527f444543415900000000000000000000000000000000000000000000000000000060648201526084016103dc565b8087600001600082825461156c9190611ad1565b92505081905550858760010160008282546115879190611ad1565b925050819055506115a18989888a600101548589896104c8565b9450505050509550959350505050565b6000806115c083612710611b5f565b6115ca9087611b22565b9050806115d961271087611b22565b6115e39190611ad1565b6115ed8583611b22565b6115f79190611ae9565b9695505050505050565b611690816040516024016116159190611a9c565b604080517fffffffffffffffffffffffffffffffffffffffffffffffffffffffffffffffe08184030181529190526020810180517bffffffffffffffffffffffffffffffffffffffffffffffffffffffff167f41304fac00000000000000000000000000000000000000000000000000000000179052611798565b50565b61172482826040516024016116a9929190611aaf565b604080517fffffffffffffffffffffffffffffffffffffffffffffffffffffffffffffffe08184030181529190526020810180517bffffffffffffffffffffffffffffffffffffffffffffffffffffffff167f9710a9d000000000000000000000000000000000000000000000000000000000179052611798565b5050565b600060038211156117895750806000611742600283611ae9565b61174d906001611ad1565b90505b81811015611783579050806002816117688186611ae9565b6117729190611ad1565b61177c9190611ae9565b9050611750565b50919050565b8115611793575060015b919050565b80516a636f6e736f6c652e6c6f67602083016000808483855afa5050505050565b6000606082840312156117ca578081fd5b6040516060810181811067ffffffffffffffff82111715611812577f4e487b710000000000000000000000000000000000000000000000000000000083526041600452602483fd5b80604052508091508235815260208301356020820152604083013560408201525092915050565b6000806080838503121561184b578182fd5b8235915061185c84602085016117b9565b90509250929050565b60008060408385031215611877578182fd5b50508035926020909101359150565b60008060006060848603121561189a578081fd5b505081359360208301359350604090920135919050565b600080600080608085870312156118c6578081fd5b5050823594602084013594506040840135936060013592509050565b600080600080608085870312156118c6578384fd5b600080600080600060e0868803121561190e578081fd5b8535945060208601359350604086013592506060860135915061193487608088016117b9565b90509295509295909350565b600080600080600060a08688031215611957578081fd5b505083359560208501359550604085013594606081013594506080013592509050565b600080600080600080600060e0888a031215611994578182fd5b505085359760208701359750604087013596606081013596506080810135955060a0810135945060c0013592509050565b600080600080600080600060e0888a031215611994578283fd5b600080600080600080600080610100898b0312156119fb578182fd5b505086359860208801359850604088013597606081013597506080810135965060a0810135955060c0810135945060e0013592509050565b60008151808452815b81811015611a5857602081850181015186830182015201611a3c565b81811115611a695782602083870101525b50601f017fffffffffffffffffffffffffffffffffffffffffffffffffffffffffffffffe0169290920160200192915050565b6020815260006108266020830184611a33565b604081526000611ac26040830185611a33565b90508260208301529392505050565b60008219821115611ae457611ae4611b76565b500190565b600082611b1d577f4e487b710000000000000000000000000000000000000000000000000000000081526012600452602481fd5b500490565b6000817fffffffffffffffffffffffffffffffffffffffffffffffffffffffffffffffff0483118215151615611b5a57611b5a611b76565b500290565b600082821015611b7157611b71611b76565b500390565b7f4e487b7100000000000000000000000000000000000000000000000000000000600052601160045260246000fdfea2646970667358221220a1a165fe9f248cf5a9f4ad60873f2ea894cc041766c489665289c82fed27786064736f6c63430008040033",
  "linkReferences": {},
  "deployedLinkReferences": {}
}