{
  "_format": "hh-sol-artifact-1",
  "contractName": "MathLib",
  "sourceName": "src/libraries/MathLib.sol",
  "abi": [
    {
      "inputs": [],
      "name": "BASIS_POINTS",
      "outputs": [
        {
          "internalType": "uint256",
          "name": "",
          "type": "uint256"
        }
      ],
      "stateMutability": "view",
      "type": "function"
    },
    {
      "inputs": [],
      "name": "WAD",
      "outputs": [
        {
          "internalType": "uint256",
          "name": "",
          "type": "uint256"
        }
      ],
      "stateMutability": "view",
      "type": "function"
    },
    {
      "inputs": [
        {
          "internalType": "uint256",
          "name": "_baseTokenQtyDesired",
          "type": "uint256"
        },
        {
          "internalType": "uint256",
          "name": "_baseTokenQtyMin",
          "type": "uint256"
        },
        {
          "internalType": "uint256",
          "name": "_baseTokenReserveQty",
          "type": "uint256"
        },
        {
          "internalType": "uint256",
          "name": "_totalSupplyOfLiquidityTokens",
          "type": "uint256"
        },
        {
          "components": [
            {
              "internalType": "uint256",
              "name": "baseTokenReserveQty",
              "type": "uint256"
            },
            {
              "internalType": "uint256",
              "name": "quoteTokenReserveQty",
              "type": "uint256"
            },
            {
              "internalType": "uint256",
              "name": "kLast",
              "type": "uint256"
            }
          ],
          "internalType": "struct MathLib.InternalBalances",
          "name": "_internalBalances",
          "type": "tuple"
        }
      ],
      "name": "calculateAddBaseTokenLiquidityQuantities",
      "outputs": [
        {
          "internalType": "uint256",
          "name": "baseTokenQty",
          "type": "uint256"
        },
        {
          "internalType": "uint256",
          "name": "liquidityTokenQty",
          "type": "uint256"
        }
      ],
      "stateMutability": "pure",
      "type": "function"
    },
    {
      "inputs": [
        {
          "internalType": "uint256",
          "name": "_totalSupplyOfLiquidityTokens",
          "type": "uint256"
        },
        {
          "components": [
            {
              "internalType": "uint256",
              "name": "baseTokenReserveQty",
              "type": "uint256"
            },
            {
              "internalType": "uint256",
              "name": "quoteTokenReserveQty",
              "type": "uint256"
            },
            {
              "internalType": "uint256",
              "name": "kLast",
              "type": "uint256"
            }
          ],
          "internalType": "struct MathLib.InternalBalances",
          "name": "_internalBalances",
          "type": "tuple"
        }
      ],
      "name": "calculateLiquidityTokenFees",
      "outputs": [
        {
          "internalType": "uint256",
          "name": "liquidityTokenFeeQty",
          "type": "uint256"
        }
      ],
      "stateMutability": "pure",
      "type": "function"
    },
    {
      "inputs": [
        {
          "internalType": "uint256",
          "name": "_totalSupplyOfLiquidityTokens",
          "type": "uint256"
        },
        {
          "internalType": "uint256",
          "name": "_quoteTokenQty",
          "type": "uint256"
        },
        {
          "internalType": "uint256",
          "name": "_quoteTokenReserveBalance",
          "type": "uint256"
        }
      ],
      "name": "calculateLiquidityTokenQtyForDoubleAssetEntry",
      "outputs": [
        {
          "internalType": "uint256",
          "name": "liquidityTokenQty",
          "type": "uint256"
        }
      ],
      "stateMutability": "pure",
      "type": "function"
    },
    {
      "inputs": [
        {
          "internalType": "uint256",
          "name": "_baseTokenReserveBalance",
          "type": "uint256"
        },
        {
          "internalType": "uint256",
          "name": "_totalSupplyOfLiquidityTokens",
          "type": "uint256"
        },
        {
          "internalType": "uint256",
          "name": "_tokenQtyAToAdd",
          "type": "uint256"
        },
        {
          "internalType": "uint256",
          "name": "_internalTokenAReserveQty",
          "type": "uint256"
        },
        {
          "internalType": "uint256",
          "name": "_tokenBDecayChange",
          "type": "uint256"
        },
        {
          "internalType": "uint256",
          "name": "_tokenBDecay",
          "type": "uint256"
        },
        {
          "internalType": "uint256",
          "name": "_omega",
          "type": "uint256"
        }
      ],
      "name": "calculateLiquidityTokenQtyForSingleAssetEntry",
      "outputs": [
        {
          "internalType": "uint256",
          "name": "liquidityTokenQty",
          "type": "uint256"
        }
      ],
      "stateMutability": "pure",
      "type": "function"
    },
    {
      "inputs": [
        {
          "internalType": "uint256",
          "name": "_tokenAQty",
          "type": "uint256"
        },
        {
          "internalType": "uint256",
          "name": "_tokenAReserveQty",
          "type": "uint256"
        },
        {
          "internalType": "uint256",
          "name": "_tokenBReserveQty",
          "type": "uint256"
        }
      ],
      "name": "calculateQty",
      "outputs": [
        {
          "internalType": "uint256",
          "name": "tokenBQty",
          "type": "uint256"
        }
      ],
      "stateMutability": "pure",
      "type": "function"
    },
    {
      "inputs": [
        {
          "internalType": "uint256",
          "name": "_tokenASwapQty",
          "type": "uint256"
        },
        {
          "internalType": "uint256",
          "name": "_tokenAReserveQty",
          "type": "uint256"
        },
        {
          "internalType": "uint256",
          "name": "_tokenBReserveQty",
          "type": "uint256"
        },
        {
          "internalType": "uint256",
          "name": "_liquidityFeeInBasisPoints",
          "type": "uint256"
        }
      ],
      "name": "calculateQtyToReturnAfterFees",
      "outputs": [
        {
          "internalType": "uint256",
          "name": "qtyToReturn",
          "type": "uint256"
        }
      ],
      "stateMutability": "pure",
      "type": "function"
    },
    {
      "inputs": [
        {
          "internalType": "uint256",
          "name": "a",
          "type": "uint256"
        },
        {
          "internalType": "uint256",
          "name": "b",
          "type": "uint256"
        }
      ],
      "name": "diff",
      "outputs": [
        {
          "internalType": "uint256",
          "name": "",
          "type": "uint256"
        }
      ],
      "stateMutability": "pure",
      "type": "function"
    },
    {
      "inputs": [
        {
          "internalType": "uint256",
          "name": "_baseTokenReserveQty",
          "type": "uint256"
        },
        {
          "components": [
            {
              "internalType": "uint256",
              "name": "baseTokenReserveQty",
              "type": "uint256"
            },
            {
              "internalType": "uint256",
              "name": "quoteTokenReserveQty",
              "type": "uint256"
            },
            {
              "internalType": "uint256",
              "name": "kLast",
              "type": "uint256"
            }
          ],
          "internalType": "struct MathLib.InternalBalances",
          "name": "_internalBalances",
          "type": "tuple"
        }
      ],
      "name": "isSufficientDecayPresent",
      "outputs": [
        {
          "internalType": "bool",
          "name": "",
          "type": "bool"
        }
      ],
      "stateMutability": "pure",
      "type": "function"
    },
    {
      "inputs": [
        {
          "internalType": "uint256",
          "name": "a",
          "type": "uint256"
        },
        {
          "internalType": "uint256",
          "name": "n",
          "type": "uint256"
        }
      ],
      "name": "roundToNearest",
      "outputs": [
        {
          "internalType": "uint256",
          "name": "",
          "type": "uint256"
        }
      ],
      "stateMutability": "pure",
      "type": "function"
    },
    {
      "inputs": [
        {
          "internalType": "uint256",
          "name": "a",
          "type": "uint256"
        },
        {
          "internalType": "uint256",
          "name": "b",
          "type": "uint256"
        }
      ],
      "name": "wDiv",
      "outputs": [
        {
          "internalType": "uint256",
          "name": "",
          "type": "uint256"
        }
      ],
      "stateMutability": "pure",
      "type": "function"
    },
    {
      "inputs": [
        {
          "internalType": "uint256",
          "name": "a",
          "type": "uint256"
        },
        {
          "internalType": "uint256",
          "name": "b",
          "type": "uint256"
        }
      ],
      "name": "wMul",
      "outputs": [
        {
          "internalType": "uint256",
          "name": "",
          "type": "uint256"
        }
      ],
      "stateMutability": "pure",
      "type": "function"
    }
  ],
  "bytecode": "0x61174061003a600b82828239805160001a60731461002d57634e487b7160e01b600052600060045260246000fd5b30600052607381538281f3fe73000000000000000000000000000000000000000030146080604052600436106101405760003560e01c80639d372a7b116100bc578063c131f4171161008b578063cb11d2c611610070578063cb11d2c614610318578063e1f1c4a714610338578063ede3df671461034157600080fd5b8063c131f417146102d5578063ca7c6a02146102f557600080fd5b80639d372a7b1461023c5780639e4fa2041461028f578063af22e864146102a2578063bd244c35146102c257600080fd5b8063578aefbb116101135780636a146024116100f85780636a146024146102075780636cb4024b146102165780638f5e514a1461022957600080fd5b8063578aefbb146101cc5780635b3cce64146101f457600080fd5b806302af65fa1461014557806318e2e8221461018557806330ed1f5d146101a6578063542f45b2146101b9575b600080fd5b81801561015157600080fd5b5061016561016036600461157d565b610354565b604080519384526020840192909252908201526060015b60405180910390f35b6101986101933660046115c8565b6104c8565b60405190815260200161017c565b6101986101b4366004611468565b61053d565b6101986101c7366004611489565b61057a565b6101df6101da3660046114fa565b610678565b6040805192835260208301919091520161017c565b610198610202366004611468565b6108a9565b610198670de0b6b3a764000081565b61019861022436600461143c565b6108c9565b610198610237366004611468565b61094c565b81801561024857600080fd5b5061025c6102573660046115e2565b610970565b60405161017c91908151815260208083015190820152604080830151908201526060918201519181019190915260800190565b61019861029d366004611489565b610d99565b8180156102ae57600080fd5b506101986102bd3660046114b4565b610da6565b6101986102d0366004611468565b610eff565b8180156102e157600080fd5b506101986102f0366004611543565b610f2c565b61030861030336600461143c565b6110ed565b604051901515815260200161017c565b81801561032457600080fd5b506101df610333366004611543565b611137565b61019861271081565b61019861034f3660046114e5565b6112fc565b60008060008061036d8b8660000154876001015461057a565b90508981116103f057878110156103e5576040517f08c379a000000000000000000000000000000000000000000000000000000000815260206004820152601f60248201527f4d6174684c69623a20494e53554646494349454e545f51554f54455f5154590060448201526064015b60405180910390fd5b8a9350809250610477565b60006104058b8760010154886000015461057a565b905089811015610471576040517f08c379a000000000000000000000000000000000000000000000000000000000815260206004820152601e60248201527f4d6174684c69623a20494e53554646494349454e545f424153455f515459000060448201526064016103dc565b93508992505b610482868489610d99565b9150838560000160008282546104989190611636565b92505081905550828560010160008282546104b39190611636565b92505081905550509750975097945050505050565b6000806104d589846108a9565b905060006104e38783611636565b905060006104f189836108a9565b9050670de0b6b3a764000061052461051261050c838e611687565b8461053d565b61020284670de0b6b3a76400006116c4565b61052e919061164e565b9b9a5050505050505050505050565b6000670de0b6b3a764000061055360028261164e565b61055d8486611687565b6105679190611636565b610571919061164e565b90505b92915050565b60008084116105e5576040517f08c379a000000000000000000000000000000000000000000000000000000000815260206004820152601960248201527f4d6174684c69623a20494e53554646494349454e545f5154590000000000000060448201526064016103dc565b6000831180156105f55750600082115b61065b576040517f08c379a000000000000000000000000000000000000000000000000000000000815260206004820152601f60248201527f4d6174684c69623a20494e53554646494349454e545f4c49515549444954590060448201526064016103dc565b826106668386611687565b610670919061164e565b949350505050565b600080600085846000015161068d91906116c4565b90508087106106f8576040517f08c379a000000000000000000000000000000000000000000000000000000000815260206004820152601b60248201527f4d6174684c69623a20494e53554646494349454e545f4445434159000000000060448201526064016103dc565b808811156107085780925061070c565b8792505b6000610720856020015186600001516108a9565b90506000670de0b6b3a764000061074861073a8488611687565b670de0b6b3a7640000610eff565b610752919061164e565b9050600081116107e4576040517f08c379a000000000000000000000000000000000000000000000000000000000815260206004820152602560248201527f4d6174684c69623a20494e53554646494349454e545f4348414e47455f494e5f60448201527f444543415900000000000000000000000000000000000000000000000000000060648201526084016103dc565b6000670de0b6b3a76400006107f98486611687565b610803919061164e565b90506000811161086f576040517f08c379a000000000000000000000000000000000000000000000000000000000815260206004820152601760248201527f4d6174684c69623a204e4f5f51554f54455f444543415900000000000000000060448201526064016103dc565b6000610883886000015189602001516108a9565b90506108988a8a898b600001518787876104c8565b955050505050509550959350505050565b6000816108b760028261164e565b61055d670de0b6b3a764000086611687565b6000806108e8836020015184600001516108e39190611687565b61134c565b905060006108f9846040015161134c565b90508082111561094457600061090f82846116c4565b6109199087611687565b9050600082610929856005611687565b6109339190611636565b905061093f818361164e565b945050505b505092915050565b60008183106109665761095f82846116c4565b9050610574565b61057183836116c4565b61099b6040518060800160405280600081526020016000815260200160008152602001600081525090565b8215610c19576040805160608101825283548152600184015460208201526002840154918101919091526109d09084906108c9565b606082018190526109e19084611636565b9250610a16858360405180606001604052908160008201548152602001600182015481526020016002820154815250506110ed565b15610bf95760008060008460000154881115610a4457610a3a8b60008a8989611137565b9092509050610a81565b610a7b8c60008a89896040518060600160405290816000820154815260200160018201548152602001600282015481525050610678565b90935090505b8a82108015610a8f57508b83105b15610ad557610ac8610aa1848e6116c4565b610aab848e6116c4565b600080610ab8878d611636565b610ac2878d611636565b8b610354565b6040870152602086015284525b8284600001818151610ae79190611636565b905250602084018051839190610afe908390611636565b905250604084018051829190610b15908390611636565b90525083518a1115610b83576040517f08c379a000000000000000000000000000000000000000000000000000000000815260206004820152601e60248201527f4d6174684c69623a20494e53554646494349454e545f424153455f515459000060448201526064016103dc565b8884602001511015610bf1576040517f08c379a000000000000000000000000000000000000000000000000000000000815260206004820152601f60248201527f4d6174684c69623a20494e53554646494349454e545f51554f54455f5154590060448201526064016103dc565b505050610d8d565b610c0889898989888888610354565b604084015260208301528152610d8d565b60008911610ca9576040517f08c379a000000000000000000000000000000000000000000000000000000000815260206004820152602660248201527f4d6174684c69623a20494e53554646494349454e545f424153455f5154595f4460448201527f455349524544000000000000000000000000000000000000000000000000000060648201526084016103dc565b60008811610d39576040517f08c379a000000000000000000000000000000000000000000000000000000000815260206004820152602760248201527f4d6174684c69623a20494e53554646494349454e545f51554f54455f5154595f60448201527f444553495245440000000000000000000000000000000000000000000000000060648201526084016103dc565b88815260208101889052610d506108e3898b611687565b6040820152805182548390600090610d69908490611636565b90915550506020810151600183018054600090610d87908490611636565b90915550505b98975050505050505050565b6000816106668585611687565b60008085118015610db75750600084115b610e1d576040517f08c379a000000000000000000000000000000000000000000000000000000000815260206004820152601f60248201527f4d6174684c69623a20494e53554646494349454e545f544f4b454e5f5154590060448201526064016103dc565b610e318583600001548460010154866112fc565b9050838111610ec2576040517f08c379a000000000000000000000000000000000000000000000000000000000815260206004820152602560248201527f4d6174684c69623a20494e53554646494349454e545f51554f54455f544f4b4560448201527f4e5f51545900000000000000000000000000000000000000000000000000000060648201526084016103dc565b84826000016000828254610ed69190611636565b9250508190555080826001016000828254610ef191906116c4565b909155509095945050505050565b60008180610f0e60028261164e565b610f189086611636565b610f22919061164e565b6105719190611687565b60008084118015610f3d5750815415155b610fc8576040517f08c379a0000000000000000000000000000000000000000000000000000000008152602060048201526024808201527f4d6174684c69623a20494e53554646494349454e545f424153455f544f4b454e60448201527f5f5154590000000000000000000000000000000000000000000000000000000060648201526084016103dc565b815484101561100a576000610fe5836000015484600101546108a9565b90506000610ff386836108a9565b9050611001888288886112fc565b92505050611021565b61101e8683600101548460000154866112fc565b90505b8481116110af576040517f08c379a0000000000000000000000000000000000000000000000000000000008152602060048201526024808201527f4d6174684c69623a20494e53554646494349454e545f424153455f544f4b454e60448201527f5f5154590000000000000000000000000000000000000000000000000000000060648201526084016103dc565b808260000160008282546110c391906116c4565b92505081905550858260010160008282546110de9190611636565b90915550909695505050505050565b6000670de0b6b3a764000061112e670de0b6b3a764000061111286866000015161094c565b61111c9190611687565b610202856000015186602001516108a9565b10159392505050565b600080600083600001548661114c91906116c4565b90506000611162856000015486600101546108a9565b9050600061117083836108a9565b90508089106111db576040517f08c379a000000000000000000000000000000000000000000000000000000000815260206004820152601b60248201527f4d6174684c69623a20494e53554646494349454e545f4445434159000000000060448201526064016103dc565b808a11156111eb578094506111ef565b8994505b6000670de0b6b3a764000061120761073a8589611687565b611211919061164e565b9050600081116112a3576040517f08c379a000000000000000000000000000000000000000000000000000000000815260206004820152602560248201527f4d6174684c69623a20494e53554646494349454e545f4348414e47455f494e5f60448201527f444543415900000000000000000000000000000000000000000000000000000060648201526084016103dc565b808760000160008282546112b79190611636565b92505081905550858760010160008282546112d29190611636565b925050819055506112ec8989888a600101548589896104c8565b9450505050509550959350505050565b60008061130b836127106116c4565b6113159087611687565b90508061132461271087611687565b61132e9190611636565b6113388583611687565b611342919061164e565b9695505050505050565b600060038211156113ad575080600061136660028361164e565b611371906001611636565b90505b818110156113a75790508060028161138c818661164e565b6113969190611636565b6113a0919061164e565b9050611374565b50919050565b81156113b7575060015b919050565b6000606082840312156113cd578081fd5b6040516060810181811067ffffffffffffffff82111715611415577f4e487b710000000000000000000000000000000000000000000000000000000083526041600452602483fd5b80604052508091508235815260208301356020820152604083013560408201525092915050565b6000806080838503121561144e578182fd5b8235915061145f84602085016113bc565b90509250929050565b6000806040838503121561147a578182fd5b50508035926020909101359150565b60008060006060848603121561149d578081fd5b505081359360208301359350604090920135919050565b600080600080608085870312156114c9578081fd5b5050823594602084013594506040840135936060013592509050565b600080600080608085870312156114c9578384fd5b600080600080600060e08688031215611511578081fd5b8535945060208601359350604086013592506060860135915061153787608088016113bc565b90509295509295909350565b600080600080600060a0868803121561155a578081fd5b505083359560208501359550604085013594606081013594506080013592509050565b600080600080600080600060e0888a031215611597578182fd5b505085359760208701359750604087013596606081013596506080810135955060a0810135945060c0013592509050565b600080600080600080600060e0888a031215611597578283fd5b600080600080600080600080610100898b0312156115fe578182fd5b505086359860208801359850604088013597606081013597506080810135965060a0810135955060c0810135945060e0013592509050565b60008219821115611649576116496116db565b500190565b600082611682577f4e487b710000000000000000000000000000000000000000000000000000000081526012600452602481fd5b500490565b6000817fffffffffffffffffffffffffffffffffffffffffffffffffffffffffffffffff04831182151516156116bf576116bf6116db565b500290565b6000828210156116d6576116d66116db565b500390565b7f4e487b7100000000000000000000000000000000000000000000000000000000600052601160045260246000fdfea2646970667358221220355bf5c5b1fdcb277e5fa8fc65b66e56094fa7cb4a3a93a55ff62ddd6476a87764736f6c63430008040033",
  "linkReferences": {},
  "deployedLinkReferences": {}
}