{
  "_format": "hh-sol-artifact-1",
  "contractName": "MathLib",
  "sourceName": "src/libraries/MathLib.sol",
  "abi": [
    {
      "inputs": [],
      "name": "BASIS_POINTS",
      "outputs": [
        {
          "internalType": "uint256",
          "name": "",
          "type": "uint256"
        }
      ],
      "stateMutability": "view",
      "type": "function"
    },
    {
      "inputs": [],
      "name": "WAD",
      "outputs": [
        {
          "internalType": "uint256",
          "name": "",
          "type": "uint256"
        }
      ],
      "stateMutability": "view",
      "type": "function"
    },
    {
      "inputs": [
        {
          "internalType": "uint256",
          "name": "_baseTokenQtyDesired",
          "type": "uint256"
        },
        {
          "internalType": "uint256",
          "name": "_baseTokenQtyMin",
          "type": "uint256"
        },
        {
          "internalType": "uint256",
          "name": "_baseTokenReserveQty",
          "type": "uint256"
        },
        {
          "internalType": "uint256",
          "name": "_totalSupplyOfLiquidityTokens",
          "type": "uint256"
        },
        {
          "components": [
            {
              "internalType": "uint256",
              "name": "baseTokenReserveQty",
              "type": "uint256"
            },
            {
              "internalType": "uint256",
              "name": "quoteTokenReserveQty",
              "type": "uint256"
            },
            {
              "internalType": "uint256",
              "name": "kLast",
              "type": "uint256"
            }
          ],
          "internalType": "struct MathLib.InternalBalances",
          "name": "_internalBalances",
          "type": "tuple"
        }
      ],
      "name": "calculateAddBaseTokenLiquidityQuantities",
      "outputs": [
        {
          "internalType": "uint256",
          "name": "baseTokenQty",
          "type": "uint256"
        },
        {
          "internalType": "uint256",
          "name": "liquidityTokenQty",
          "type": "uint256"
        }
      ],
      "stateMutability": "view",
      "type": "function"
    },
    {
      "inputs": [
        {
          "internalType": "uint256",
          "name": "_totalSupplyOfLiquidityTokens",
          "type": "uint256"
        },
        {
          "components": [
            {
              "internalType": "uint256",
              "name": "baseTokenReserveQty",
              "type": "uint256"
            },
            {
              "internalType": "uint256",
              "name": "quoteTokenReserveQty",
              "type": "uint256"
            },
            {
              "internalType": "uint256",
              "name": "kLast",
              "type": "uint256"
            }
          ],
          "internalType": "struct MathLib.InternalBalances",
          "name": "_internalBalances",
          "type": "tuple"
        }
      ],
      "name": "calculateLiquidityTokenFees",
      "outputs": [
        {
          "internalType": "uint256",
          "name": "liquidityTokenFeeQty",
          "type": "uint256"
        }
      ],
      "stateMutability": "pure",
      "type": "function"
    },
    {
      "inputs": [
        {
          "internalType": "uint256",
          "name": "_totalSupplyOfLiquidityTokens",
          "type": "uint256"
        },
        {
          "internalType": "uint256",
          "name": "_quoteTokenQty",
          "type": "uint256"
        },
        {
          "internalType": "uint256",
          "name": "_quoteTokenReserveBalance",
          "type": "uint256"
        }
      ],
      "name": "calculateLiquidityTokenQtyForDoubleAssetEntry",
      "outputs": [
        {
          "internalType": "uint256",
          "name": "liquidityTokenQty",
          "type": "uint256"
        }
      ],
      "stateMutability": "pure",
      "type": "function"
    },
    {
      "inputs": [
        {
          "internalType": "uint256",
          "name": "_baseTokenReserveBalance",
          "type": "uint256"
        },
        {
          "internalType": "uint256",
          "name": "_totalSupplyOfLiquidityTokens",
          "type": "uint256"
        },
        {
          "internalType": "uint256",
          "name": "_tokenQtyAToAdd",
          "type": "uint256"
        },
        {
          "internalType": "uint256",
          "name": "_internalTokenAReserveQty",
          "type": "uint256"
        },
        {
          "internalType": "uint256",
          "name": "_tokenBDecayChange",
          "type": "uint256"
        },
        {
          "internalType": "uint256",
          "name": "_tokenBDecay",
          "type": "uint256"
        },
        {
          "internalType": "uint256",
          "name": "_omega",
          "type": "uint256"
        }
      ],
      "name": "calculateLiquidityTokenQtyForSingleAssetEntry",
      "outputs": [
        {
          "internalType": "uint256",
          "name": "liquidityTokenQty",
          "type": "uint256"
        }
      ],
      "stateMutability": "view",
      "type": "function"
    },
    {
      "inputs": [
        {
          "internalType": "uint256",
          "name": "_baseTokenReserveBalance",
          "type": "uint256"
        },
        {
          "internalType": "uint256",
          "name": "_totalSupplyOfLiquidityTokens",
          "type": "uint256"
        },
        {
          "internalType": "uint256",
          "name": "_tokenQtyAToAdd",
          "type": "uint256"
        },
        {
          "internalType": "uint256",
          "name": "_internalTokenAReserveQty",
          "type": "uint256"
        },
        {
          "internalType": "uint256",
          "name": "_tokenBDecayChange",
          "type": "uint256"
        },
        {
          "internalType": "uint256",
          "name": "_tokenBDecay",
          "type": "uint256"
        },
        {
          "internalType": "uint256",
          "name": "_omega",
          "type": "uint256"
        }
      ],
      "name": "calculateLiquidityTokenQtyForSingleAssetEntryForQuoteTokenDecay",
      "outputs": [
        {
          "internalType": "uint256",
          "name": "liquidityTokenQty",
          "type": "uint256"
        }
      ],
      "stateMutability": "view",
      "type": "function"
    },
    {
      "inputs": [
        {
          "internalType": "uint256",
          "name": "_tokenAQty",
          "type": "uint256"
        },
        {
          "internalType": "uint256",
          "name": "_tokenAReserveQty",
          "type": "uint256"
        },
        {
          "internalType": "uint256",
          "name": "_tokenBReserveQty",
          "type": "uint256"
        }
      ],
      "name": "calculateQty",
      "outputs": [
        {
          "internalType": "uint256",
          "name": "tokenBQty",
          "type": "uint256"
        }
      ],
      "stateMutability": "pure",
      "type": "function"
    },
    {
      "inputs": [
        {
          "internalType": "uint256",
          "name": "_tokenASwapQty",
          "type": "uint256"
        },
        {
          "internalType": "uint256",
          "name": "_tokenAReserveQty",
          "type": "uint256"
        },
        {
          "internalType": "uint256",
          "name": "_tokenBReserveQty",
          "type": "uint256"
        },
        {
          "internalType": "uint256",
          "name": "_liquidityFeeInBasisPoints",
          "type": "uint256"
        }
      ],
      "name": "calculateQtyToReturnAfterFees",
      "outputs": [
        {
          "internalType": "uint256",
          "name": "qtyToReturn",
          "type": "uint256"
        }
      ],
      "stateMutability": "pure",
      "type": "function"
    },
    {
      "inputs": [
        {
          "internalType": "uint256",
          "name": "a",
          "type": "uint256"
        },
        {
          "internalType": "uint256",
          "name": "b",
          "type": "uint256"
        }
      ],
      "name": "diff",
      "outputs": [
        {
          "internalType": "uint256",
          "name": "",
          "type": "uint256"
        }
      ],
      "stateMutability": "pure",
      "type": "function"
    },
    {
      "inputs": [
        {
          "internalType": "uint256",
          "name": "_baseTokenReserveQty",
          "type": "uint256"
        },
        {
          "components": [
            {
              "internalType": "uint256",
              "name": "baseTokenReserveQty",
              "type": "uint256"
            },
            {
              "internalType": "uint256",
              "name": "quoteTokenReserveQty",
              "type": "uint256"
            },
            {
              "internalType": "uint256",
              "name": "kLast",
              "type": "uint256"
            }
          ],
          "internalType": "struct MathLib.InternalBalances",
          "name": "_internalBalances",
          "type": "tuple"
        }
      ],
      "name": "isSufficientDecayPresent",
      "outputs": [
        {
          "internalType": "bool",
          "name": "",
          "type": "bool"
        }
      ],
      "stateMutability": "pure",
      "type": "function"
    },
    {
      "inputs": [
        {
          "internalType": "uint256",
          "name": "a",
          "type": "uint256"
        },
        {
          "internalType": "uint256",
          "name": "n",
          "type": "uint256"
        }
      ],
      "name": "roundToNearest",
      "outputs": [
        {
          "internalType": "uint256",
          "name": "",
          "type": "uint256"
        }
      ],
      "stateMutability": "pure",
      "type": "function"
    },
    {
      "inputs": [
        {
          "internalType": "uint256",
          "name": "a",
          "type": "uint256"
        },
        {
          "internalType": "uint256",
          "name": "b",
          "type": "uint256"
        }
      ],
      "name": "wDiv",
      "outputs": [
        {
          "internalType": "uint256",
          "name": "",
          "type": "uint256"
        }
      ],
      "stateMutability": "pure",
      "type": "function"
    },
    {
      "inputs": [
        {
          "internalType": "uint256",
          "name": "a",
          "type": "uint256"
        },
        {
          "internalType": "uint256",
          "name": "b",
          "type": "uint256"
        }
      ],
      "name": "wMul",
      "outputs": [
        {
          "internalType": "uint256",
          "name": "",
          "type": "uint256"
        }
      ],
      "stateMutability": "pure",
      "type": "function"
    }
  ],
  "bytecode": "0x611fb761003a600b82828239805160001a60731461002d57634e487b7160e01b600052600060045260246000fd5b30600052607381538281f3fe730000000000000000000000000000000000000000301460806040526004361061015b5760003560e01c80638f5e514a116100d7578063c131f4171161008b578063cb11d2c611610070578063cb11d2c614610346578063e1f1c4a714610366578063ede3df671461036f57600080fd5b8063c131f41714610303578063ca7c6a021461032357600080fd5b80639e4fa204116100bc5780639e4fa204146102bd578063af22e864146102d0578063bd244c35146102f057600080fd5b80638f5e514a146102575780639d372a7b1461026a57600080fd5b8063542f45b21161012e5780635b3cce64116101135780635b3cce64146102225780636a146024146102355780636cb4024b1461024457600080fd5b8063542f45b2146101e7578063578aefbb146101fa57600080fd5b806302af65fa1461016057806308bce20d146101a057806318e2e822146101c157806330ed1f5d146101d4575b600080fd5b81801561016c57600080fd5b5061018061017b366004611cd4565b610382565b604080519384526020840192909252908201526060015b60405180910390f35b6101b36101ae366004611d1f565b610535565b604051908152602001610197565b6101b36101cf366004611d1f565b6107ff565b6101b36101e2366004611bbf565b610b11565b6101b36101f5366004611be0565b610b4e565b61020d610208366004611c51565b610c4c565b60408051928352602083019190915201610197565b6101b3610230366004611bbf565b610eb8565b6101b3670de0b6b3a764000081565b6101b3610252366004611b93565b610ed8565b6101b3610265366004611bbf565b610f5b565b81801561027657600080fd5b5061028a610285366004611d39565b610f7f565b60405161019791908151815260208083015190820152604080830151908201526060918201519181019190915260800190565b6101b36102cb366004611be0565b6113a8565b8180156102dc57600080fd5b506101b36102eb366004611c0b565b6113b5565b6101b36102fe366004611bbf565b61150e565b81801561030f57600080fd5b506101b361031e366004611c9a565b61153b565b610336610331366004611b93565b6116fc565b6040519015158152602001610197565b81801561035257600080fd5b5061020d610361366004611c9a565b611746565b6101b361271081565b6101b361037d366004611c3c565b61190b565b60008060008061039b8b86600001548760010154610b4e565b905089811161041e5787811015610413576040517f08c379a000000000000000000000000000000000000000000000000000000000815260206004820152601f60248201527f4d6174684c69623a20494e53554646494349454e545f51554f54455f5154590060448201526064015b60405180910390fd5b8a93508092506104a5565b60006104338b87600101548860000154610b4e565b90508981101561049f576040517f08c379a000000000000000000000000000000000000000000000000000000000815260206004820152601e60248201527f4d6174684c69623a20494e53554646494349454e545f424153455f5154590000604482015260640161040a565b93508992505b6104b08684896113a8565b91506104f16040518060400160405280600d81526020017f736f6c69646974793a20444145000000000000000000000000000000000000008152508361195b565b838560000160008282546105059190611e2b565b92505081905550828560010160008282546105209190611e2b565b92505081905550509750975097945050505050565b60006105586040518060800160405280604d8152602001611f35604d91396119f0565b6105976040518060400160405280601a81526020017f5f62617365546f6b656e5265736572766542616c616e63653a200000000000008152508961195b565b6105d66040518060400160405280601f81526020017f5f746f74616c537570706c794f664c6971756964697479546f6b656e733a20008152508861195b565b6106156040518060400160405280601181526020017f5f746f6b656e51747941546f4164643a200000000000000000000000000000008152508761195b565b6106546040518060400160405280601b81526020017f5f696e7465726e616c546f6b656e41526573657276655174793a2000000000008152508661195b565b6106936040518060400160405280601481526020017f5f746f6b656e4244656361794368616e67653a200000000000000000000000008152508561195b565b6106d26040518060400160405280600e81526020017f5f746f6b656e4244656361793a200000000000000000000000000000000000008152508461195b565b6107116040518060400160405280600881526020017f5f6f6d6567613a200000000000000000000000000000000000000000000000008152508361195b565b60008661071e8a88611e2b565b6107289190611e2b565b90506107696040518060400160405280600d81526020017f64656e6f6d696e61746f723a20000000000000000000000000000000000000008152508261195b565b60006107758883610eb8565b90506107b66040518060400160405280600881526020017f7747616d6d613a200000000000000000000000000000000000000000000000008152508261195b565b670de0b6b3a76400006107e76107d56107cf838d611e7c565b84610b11565b61023084670de0b6b3a7640000611eb9565b6107f19190611e43565b9a9950505050505050505050565b600061083f6040518060400160405280600d81526020017f736f6c6964697479206c69623a000000000000000000000000000000000000008152506119f0565b61087e6040518060400160405280601a81526020017f5f62617365546f6b656e5265736572766542616c616e63653a200000000000008152508961195b565b6108bd6040518060400160405280601f81526020017f5f746f74616c537570706c794f664c6971756964697479546f6b656e733a20008152508861195b565b6108fc6040518060400160405280601181526020017f5f746f6b656e51747941546f4164643a200000000000000000000000000000008152508761195b565b61093b6040518060400160405280601b81526020017f5f696e7465726e616c546f6b656e41526573657276655174793a2000000000008152508661195b565b61097a6040518060400160405280601481526020017f5f746f6b656e4244656361794368616e67653a200000000000000000000000008152508561195b565b6109b96040518060400160405280600e81526020017f5f746f6b656e4244656361793a200000000000000000000000000000000000008152508461195b565b6109f86040518060400160405280600881526020017f5f6f6d6567613a200000000000000000000000000000000000000000000000008152508361195b565b6000610a048984610eb8565b9050610a456040518060400160405280600881526020017f77526174696f3a200000000000000000000000000000000000000000000000008152508261195b565b6000610a518783611e2b565b9050610a926040518060400160405280600d81526020017f64656e6f6d696e61746f723a20000000000000000000000000000000000000008152508261195b565b6000610a9e8983610eb8565b9050610adf6040518060400160405280600881526020017f7747616d6d613a200000000000000000000000000000000000000000000000008152508261195b565b670de0b6b3a7640000610af86107d56107cf838e611e7c565b610b029190611e43565b9b9a5050505050505050505050565b6000670de0b6b3a7640000610b27600282611e43565b610b318486611e7c565b610b3b9190611e2b565b610b459190611e43565b90505b92915050565b6000808411610bb9576040517f08c379a000000000000000000000000000000000000000000000000000000000815260206004820152601960248201527f4d6174684c69623a20494e53554646494349454e545f51545900000000000000604482015260640161040a565b600083118015610bc95750600082115b610c2f576040517f08c379a000000000000000000000000000000000000000000000000000000000815260206004820152601f60248201527f4d6174684c69623a20494e53554646494349454e545f4c495155494449545900604482015260640161040a565b82610c3a8386611e7c565b610c449190611e43565b949350505050565b6000806000858460000151610c619190611eb9565b9050808710610ccc576040517f08c379a000000000000000000000000000000000000000000000000000000000815260206004820152601b60248201527f4d6174684c69623a20494e53554646494349454e545f44454341590000000000604482015260640161040a565b80881115610cdc57809250610ce0565b8792505b6000610cf485602001518660000151610eb8565b90506000670de0b6b3a7640000610d1c610d0e8488611e7c565b670de0b6b3a764000061150e565b610d269190611e43565b905060008111610db8576040517f08c379a000000000000000000000000000000000000000000000000000000000815260206004820152602560248201527f4d6174684c69623a20494e53554646494349454e545f4348414e47455f494e5f60448201527f4445434159000000000000000000000000000000000000000000000000000000606482015260840161040a565b6000670de0b6b3a7640000610dcd8486611e7c565b610dd79190611e43565b905060008111610e43576040517f08c379a000000000000000000000000000000000000000000000000000000000815260206004820152601760248201527f4d6174684c69623a204e4f5f51554f54455f4445434159000000000000000000604482015260640161040a565b6000610e5788600001518960200151610eb8565b9050610e6c8a8a898b600001518787876107ff565b95506000610e838b8b8a8c60000151888888610535565b9050610ea7604051806060016040528060358152602001611f00603591398261195b565b955050505050509550959350505050565b600081610ec6600282611e43565b610b31670de0b6b3a764000086611e7c565b600080610ef783602001518460000151610ef29190611e7c565b611a82565b90506000610f088460400151611a82565b905080821115610f53576000610f1e8284611eb9565b610f289087611e7c565b9050600082610f38856005611e7c565b610f429190611e2b565b9050610f4e8183611e43565b945050505b505092915050565b6000818310610f7557610f6e8284611eb9565b9050610b48565b610b458383611eb9565b610faa6040518060800160405280600081526020016000815260200160008152602001600081525090565b821561122857604080516060810182528354815260018401546020820152600284015491810191909152610fdf908490610ed8565b60608201819052610ff09084611e2b565b9250611025858360405180606001604052908160008201548152602001600182015481526020016002820154815250506116fc565b156112085760008060008460000154881115611053576110498b60008a8989611746565b9092509050611090565b61108a8c60008a89896040518060600160405290816000820154815260200160018201548152602001600282015481525050610c4c565b90935090505b8a8210801561109e57508b83105b156110e4576110d76110b0848e611eb9565b6110ba848e611eb9565b6000806110c7878d611e2b565b6110d1878d611e2b565b8b610382565b6040870152602086015284525b82846000018181516110f69190611e2b565b90525060208401805183919061110d908390611e2b565b905250604084018051829190611124908390611e2b565b90525083518a1115611192576040517f08c379a000000000000000000000000000000000000000000000000000000000815260206004820152601e60248201527f4d6174684c69623a20494e53554646494349454e545f424153455f5154590000604482015260640161040a565b8884602001511015611200576040517f08c379a000000000000000000000000000000000000000000000000000000000815260206004820152601f60248201527f4d6174684c69623a20494e53554646494349454e545f51554f54455f51545900604482015260640161040a565b50505061139c565b61121789898989888888610382565b60408401526020830152815261139c565b600089116112b8576040517f08c379a000000000000000000000000000000000000000000000000000000000815260206004820152602660248201527f4d6174684c69623a20494e53554646494349454e545f424153455f5154595f4460448201527f4553495245440000000000000000000000000000000000000000000000000000606482015260840161040a565b60008811611348576040517f08c379a000000000000000000000000000000000000000000000000000000000815260206004820152602760248201527f4d6174684c69623a20494e53554646494349454e545f51554f54455f5154595f60448201527f4445534952454400000000000000000000000000000000000000000000000000606482015260840161040a565b8881526020810188905261135f610ef2898b611e7c565b6040820152805182548390600090611378908490611e2b565b90915550506020810151600183018054600090611396908490611e2b565b90915550505b98975050505050505050565b600081610c3a8585611e7c565b600080851180156113c65750600084115b61142c576040517f08c379a000000000000000000000000000000000000000000000000000000000815260206004820152601f60248201527f4d6174684c69623a20494e53554646494349454e545f544f4b454e5f51545900604482015260640161040a565b61144085836000015484600101548661190b565b90508381116114d1576040517f08c379a000000000000000000000000000000000000000000000000000000000815260206004820152602560248201527f4d6174684c69623a20494e53554646494349454e545f51554f54455f544f4b4560448201527f4e5f515459000000000000000000000000000000000000000000000000000000606482015260840161040a565b848260000160008282546114e59190611e2b565b92505081905550808260010160008282546115009190611eb9565b909155509095945050505050565b6000818061151d600282611e43565b6115279086611e2b565b6115319190611e43565b610b459190611e7c565b6000808411801561154c5750815415155b6115d7576040517f08c379a0000000000000000000000000000000000000000000000000000000008152602060048201526024808201527f4d6174684c69623a20494e53554646494349454e545f424153455f544f4b454e60448201527f5f51545900000000000000000000000000000000000000000000000000000000606482015260840161040a565b81548410156116195760006115f483600001548460010154610eb8565b905060006116028683610eb8565b90506116108882888861190b565b92505050611630565b61162d86836001015484600001548661190b565b90505b8481116116be576040517f08c379a0000000000000000000000000000000000000000000000000000000008152602060048201526024808201527f4d6174684c69623a20494e53554646494349454e545f424153455f544f4b454e60448201527f5f51545900000000000000000000000000000000000000000000000000000000606482015260840161040a565b808260000160008282546116d29190611eb9565b92505081905550858260010160008282546116ed9190611e2b565b90915550909695505050505050565b6000670de0b6b3a764000061173d670de0b6b3a7640000611721868660000151610f5b565b61172b9190611e7c565b61023085600001518660200151610eb8565b10159392505050565b600080600083600001548661175b9190611eb9565b9050600061177185600001548660010154610eb8565b9050600061177f8383610eb8565b90508089106117ea576040517f08c379a000000000000000000000000000000000000000000000000000000000815260206004820152601b60248201527f4d6174684c69623a20494e53554646494349454e545f44454341590000000000604482015260640161040a565b808a11156117fa578094506117fe565b8994505b6000670de0b6b3a7640000611816610d0e8589611e7c565b6118209190611e43565b9050600081116118b2576040517f08c379a000000000000000000000000000000000000000000000000000000000815260206004820152602560248201527f4d6174684c69623a20494e53554646494349454e545f4348414e47455f494e5f60448201527f4445434159000000000000000000000000000000000000000000000000000000606482015260840161040a565b808760000160008282546118c69190611e2b565b92505081905550858760010160008282546118e19190611e2b565b925050819055506118fb8989888a600101548589896107ff565b9450505050509550959350505050565b60008061191a83612710611eb9565b6119249087611e7c565b90508061193361271087611e7c565b61193d9190611e2b565b6119478583611e7c565b6119519190611e43565b9695505050505050565b6119ec8282604051602401611971929190611e09565b604080517fffffffffffffffffffffffffffffffffffffffffffffffffffffffffffffffe08184030181529190526020810180517bffffffffffffffffffffffffffffffffffffffffffffffffffffffff167f9710a9d000000000000000000000000000000000000000000000000000000000179052611af2565b5050565b611a7f81604051602401611a049190611df6565b604080517fffffffffffffffffffffffffffffffffffffffffffffffffffffffffffffffe08184030181529190526020810180517bffffffffffffffffffffffffffffffffffffffffffffffffffffffff167f41304fac00000000000000000000000000000000000000000000000000000000179052611af2565b50565b60006003821115611ae35750806000611a9c600283611e43565b611aa7906001611e2b565b90505b81811015611add57905080600281611ac28186611e43565b611acc9190611e2b565b611ad69190611e43565b9050611aaa565b50919050565b8115611aed575060015b919050565b80516a636f6e736f6c652e6c6f67602083016000808483855afa5050505050565b600060608284031215611b24578081fd5b6040516060810181811067ffffffffffffffff82111715611b6c577f4e487b710000000000000000000000000000000000000000000000000000000083526041600452602483fd5b80604052508091508235815260208301356020820152604083013560408201525092915050565b60008060808385031215611ba5578182fd5b82359150611bb68460208501611b13565b90509250929050565b60008060408385031215611bd1578182fd5b50508035926020909101359150565b600080600060608486031215611bf4578081fd5b505081359360208301359350604090920135919050565b60008060008060808587031215611c20578081fd5b5050823594602084013594506040840135936060013592509050565b60008060008060808587031215611c20578384fd5b600080600080600060e08688031215611c68578081fd5b85359450602086013593506040860135925060608601359150611c8e8760808801611b13565b90509295509295909350565b600080600080600060a08688031215611cb1578081fd5b505083359560208501359550604085013594606081013594506080013592509050565b600080600080600080600060e0888a031215611cee578182fd5b505085359760208701359750604087013596606081013596506080810135955060a0810135945060c0013592509050565b600080600080600080600060e0888a031215611cee578283fd5b600080600080600080600080610100898b031215611d55578182fd5b505086359860208801359850604088013597606081013597506080810135965060a0810135955060c0810135945060e0013592509050565b60008151808452815b81811015611db257602081850181015186830182015201611d96565b81811115611dc35782602083870101525b50601f017fffffffffffffffffffffffffffffffffffffffffffffffffffffffffffffffe0169290920160200192915050565b602081526000610b456020830184611d8d565b604081526000611e1c6040830185611d8d565b90508260208301529392505050565b60008219821115611e3e57611e3e611ed0565b500190565b600082611e77577f4e487b710000000000000000000000000000000000000000000000000000000081526012600452602481fd5b500490565b6000817fffffffffffffffffffffffffffffffffffffffffffffffffffffffffffffffff0483118215151615611eb457611eb4611ed0565b500290565b600082821015611ecb57611ecb611ed0565b500390565b7f4e487b7100000000000000000000000000000000000000000000000000000000600052601160045260246000fdfe6e6577204c50207761793a20287573696e67207468652072656261736520646f776e20736f6c7574696f6e2066726f6d2063342920736f6c6964697479206c69623a2063616c63756c6174654c6971756964697479546f6b656e517479466f7253696e676c654173736574456e747279466f7251756f7465546f6b656e4465636179a26469706673582212207333b6ce7997f84bbf34a969f4d0afe1d63f4a757f08c0f02f6a45b58528ee8964736f6c63430008040033",
  "linkReferences": {},
  "deployedLinkReferences": {}
}