{
  "_format": "hh-sol-artifact-1",
  "contractName": "MathLib",
  "sourceName": "src/libraries/MathLib.sol",
  "abi": [
    {
      "inputs": [],
      "name": "BASIS_POINTS",
      "outputs": [
        {
          "internalType": "uint256",
          "name": "",
          "type": "uint256"
        }
      ],
      "stateMutability": "view",
      "type": "function"
    },
    {
      "inputs": [],
      "name": "WAD",
      "outputs": [
        {
          "internalType": "uint256",
          "name": "",
          "type": "uint256"
        }
      ],
      "stateMutability": "view",
      "type": "function"
    },
    {
      "inputs": [
        {
          "internalType": "uint256",
          "name": "_baseTokenQtyDesired",
          "type": "uint256"
        },
        {
          "internalType": "uint256",
          "name": "_baseTokenQtyMin",
          "type": "uint256"
        },
        {
          "internalType": "uint256",
          "name": "_baseTokenReserveQty",
          "type": "uint256"
        },
        {
          "internalType": "uint256",
          "name": "_totalSupplyOfLiquidityTokens",
          "type": "uint256"
        },
        {
          "components": [
            {
              "internalType": "uint256",
              "name": "baseTokenReserveQty",
              "type": "uint256"
            },
            {
              "internalType": "uint256",
              "name": "quoteTokenReserveQty",
              "type": "uint256"
            },
            {
              "internalType": "uint256",
              "name": "kLast",
              "type": "uint256"
            }
          ],
          "internalType": "struct MathLib.InternalBalances",
          "name": "_internalBalances",
          "type": "tuple"
        }
      ],
      "name": "calculateAddBaseTokenLiquidityQuantities",
      "outputs": [
        {
          "internalType": "uint256",
          "name": "baseTokenQty",
          "type": "uint256"
        },
        {
          "internalType": "uint256",
          "name": "liquidityTokenQty",
          "type": "uint256"
        }
      ],
      "stateMutability": "pure",
      "type": "function"
    },
    {
      "inputs": [
        {
          "internalType": "uint256",
          "name": "_totalSupplyOfLiquidityTokens",
          "type": "uint256"
        },
        {
          "components": [
            {
              "internalType": "uint256",
              "name": "baseTokenReserveQty",
              "type": "uint256"
            },
            {
              "internalType": "uint256",
              "name": "quoteTokenReserveQty",
              "type": "uint256"
            },
            {
              "internalType": "uint256",
              "name": "kLast",
              "type": "uint256"
            }
          ],
          "internalType": "struct MathLib.InternalBalances",
          "name": "_internalBalances",
          "type": "tuple"
        }
      ],
      "name": "calculateLiquidityTokenFees",
      "outputs": [
        {
          "internalType": "uint256",
          "name": "liquidityTokenFeeQty",
          "type": "uint256"
        }
      ],
      "stateMutability": "pure",
      "type": "function"
    },
    {
      "inputs": [
        {
          "internalType": "uint256",
          "name": "_totalSupplyOfLiquidityTokens",
          "type": "uint256"
        },
        {
          "internalType": "uint256",
          "name": "_quoteTokenQty",
          "type": "uint256"
        },
        {
          "internalType": "uint256",
          "name": "_quoteTokenReserveBalance",
          "type": "uint256"
        }
      ],
      "name": "calculateLiquidityTokenQtyForDoubleAssetEntry",
      "outputs": [
        {
          "internalType": "uint256",
          "name": "liquidityTokenQty",
          "type": "uint256"
        }
      ],
      "stateMutability": "pure",
      "type": "function"
    },
    {
      "inputs": [
        {
          "internalType": "uint256",
          "name": "_baseTokenReserveBalance",
          "type": "uint256"
        },
        {
          "internalType": "uint256",
          "name": "_totalSupplyOfLiquidityTokens",
          "type": "uint256"
        },
        {
          "internalType": "uint256",
          "name": "_tokenQtyAToAdd",
          "type": "uint256"
        },
        {
          "internalType": "uint256",
          "name": "_internalTokenAReserveQty",
          "type": "uint256"
        },
        {
          "internalType": "uint256",
          "name": "_omega",
          "type": "uint256"
        }
      ],
      "name": "calculateLiquidityTokenQtyForSingleAssetEntryWithBaseTokenDecay",
      "outputs": [
        {
          "internalType": "uint256",
          "name": "liquidityTokenQty",
          "type": "uint256"
        }
      ],
      "stateMutability": "pure",
      "type": "function"
    },
    {
      "inputs": [
        {
          "internalType": "uint256",
          "name": "_baseTokenReserveBalance",
          "type": "uint256"
        },
        {
          "internalType": "uint256",
          "name": "_totalSupplyOfLiquidityTokens",
          "type": "uint256"
        },
        {
          "internalType": "uint256",
          "name": "_tokenQtyAToAdd",
          "type": "uint256"
        },
        {
          "internalType": "uint256",
          "name": "_internalTokenAReserveQty",
          "type": "uint256"
        }
      ],
      "name": "calculateLiquidityTokenQtyForSingleAssetEntryWithQuoteTokenDecay",
      "outputs": [
        {
          "internalType": "uint256",
          "name": "liquidityTokenQty",
          "type": "uint256"
        }
      ],
      "stateMutability": "pure",
      "type": "function"
    },
    {
      "inputs": [
        {
          "internalType": "uint256",
          "name": "_tokenAQty",
          "type": "uint256"
        },
        {
          "internalType": "uint256",
          "name": "_tokenAReserveQty",
          "type": "uint256"
        },
        {
          "internalType": "uint256",
          "name": "_tokenBReserveQty",
          "type": "uint256"
        }
      ],
      "name": "calculateQty",
      "outputs": [
        {
          "internalType": "uint256",
          "name": "tokenBQty",
          "type": "uint256"
        }
      ],
      "stateMutability": "pure",
      "type": "function"
    },
    {
      "inputs": [
        {
          "internalType": "uint256",
          "name": "_tokenASwapQty",
          "type": "uint256"
        },
        {
          "internalType": "uint256",
          "name": "_tokenAReserveQty",
          "type": "uint256"
        },
        {
          "internalType": "uint256",
          "name": "_tokenBReserveQty",
          "type": "uint256"
        },
        {
          "internalType": "uint256",
          "name": "_liquidityFeeInBasisPoints",
          "type": "uint256"
        }
      ],
      "name": "calculateQtyToReturnAfterFees",
      "outputs": [
        {
          "internalType": "uint256",
          "name": "qtyToReturn",
          "type": "uint256"
        }
      ],
      "stateMutability": "pure",
      "type": "function"
    },
    {
      "inputs": [
        {
          "internalType": "uint256",
          "name": "a",
          "type": "uint256"
        },
        {
          "internalType": "uint256",
          "name": "b",
          "type": "uint256"
        }
      ],
      "name": "diff",
      "outputs": [
        {
          "internalType": "uint256",
          "name": "",
          "type": "uint256"
        }
      ],
      "stateMutability": "pure",
      "type": "function"
    },
    {
      "inputs": [
        {
          "internalType": "uint256",
          "name": "_baseTokenReserveQty",
          "type": "uint256"
        },
        {
          "components": [
            {
              "internalType": "uint256",
              "name": "baseTokenReserveQty",
              "type": "uint256"
            },
            {
              "internalType": "uint256",
              "name": "quoteTokenReserveQty",
              "type": "uint256"
            },
            {
              "internalType": "uint256",
              "name": "kLast",
              "type": "uint256"
            }
          ],
          "internalType": "struct MathLib.InternalBalances",
          "name": "_internalBalances",
          "type": "tuple"
        }
      ],
      "name": "isSufficientDecayPresent",
      "outputs": [
        {
          "internalType": "bool",
          "name": "",
          "type": "bool"
        }
      ],
      "stateMutability": "pure",
      "type": "function"
    },
    {
      "inputs": [
        {
          "internalType": "uint256",
          "name": "a",
          "type": "uint256"
        },
        {
          "internalType": "uint256",
          "name": "n",
          "type": "uint256"
        }
      ],
      "name": "roundToNearest",
      "outputs": [
        {
          "internalType": "uint256",
          "name": "",
          "type": "uint256"
        }
      ],
      "stateMutability": "pure",
      "type": "function"
    },
    {
      "inputs": [
        {
          "internalType": "uint256",
          "name": "a",
          "type": "uint256"
        },
        {
          "internalType": "uint256",
          "name": "b",
          "type": "uint256"
        }
      ],
      "name": "wDiv",
      "outputs": [
        {
          "internalType": "uint256",
          "name": "",
          "type": "uint256"
        }
      ],
      "stateMutability": "pure",
      "type": "function"
    },
    {
      "inputs": [
        {
          "internalType": "uint256",
          "name": "a",
          "type": "uint256"
        },
        {
          "internalType": "uint256",
          "name": "b",
          "type": "uint256"
        }
      ],
      "name": "wMul",
      "outputs": [
        {
          "internalType": "uint256",
          "name": "",
          "type": "uint256"
        }
      ],
      "stateMutability": "pure",
      "type": "function"
    }
  ],
  "bytecode": "0x61177c61003a600b82828239805160001a60731461002d57634e487b7160e01b600052600060045260246000fd5b30600052607381538281f3fe730000000000000000000000000000000000000000301460806040526004361061015b5760003560e01c80639e4fa204116100d7578063cb11d2c61161008b578063ede3df6711610070578063ede3df6714610349578063f27d5b381461035c578063f8f4a4ba1461036f57600080fd5b8063cb11d2c614610320578063e1f1c4a71461034057600080fd5b8063bd244c35116100bc578063bd244c35146102ca578063c131f417146102dd578063ca7c6a02146102fd57600080fd5b80639e4fa20414610297578063af22e864146102aa57600080fd5b80635b3cce641161012e5780636cb4024b116101135780636cb4024b1461021e5780638f5e514a146102315780639d372a7b1461024457600080fd5b80635b3cce64146101fc5780636a1460241461020f57600080fd5b806302af65fa1461016057806330ed1f5d146101a0578063542f45b2146101c1578063578aefbb146101d4575b600080fd5b81801561016c57600080fd5b5061018061017b3660046115d3565b610382565b604080519384526020840192909252908201526060015b60405180910390f35b6101b36101ae3660046114be565b6104f6565b604051908152602001610197565b6101b36101cf3660046114df565b610533565b6101e76101e2366004611550565b610631565b60408051928352602083019190915201610197565b6101b361020a3660046114be565b610848565b6101b3670de0b6b3a764000081565b6101b361022c366004611492565b610868565b6101b361023f3660046114be565b6108eb565b81801561025057600080fd5b5061026461025f36600461161e565b61090f565b60405161019791908151815260208083015190820152604080830151908201526060918201519181019190915260800190565b6101b36102a53660046114df565b610d38565b8180156102b657600080fd5b506101b36102c536600461150a565b610d45565b6101b36102d83660046114be565b610e9e565b8180156102e957600080fd5b506101b36102f8366004611599565b610ecb565b61031061030b366004611492565b61108c565b6040519015158152602001610197565b81801561032c57600080fd5b506101e761033b366004611599565b6110d6565b6101b361271081565b6101b361035736600461153b565b611289565b6101b361036a366004611599565b6112d9565b6101b361037d36600461153b565b61134c565b60008060008061039b8b86600001548760010154610533565b905089811161041e5787811015610413576040517f08c379a000000000000000000000000000000000000000000000000000000000815260206004820152601f60248201527f4d6174684c69623a20494e53554646494349454e545f51554f54455f5154590060448201526064015b60405180910390fd5b8a93508092506104a5565b60006104338b87600101548860000154610533565b90508981101561049f576040517f08c379a000000000000000000000000000000000000000000000000000000000815260206004820152601e60248201527f4d6174684c69623a20494e53554646494349454e545f424153455f5154590000604482015260640161040a565b93508992505b6104b0868489610d38565b9150838560000160008282546104c69190611672565b92505081905550828560010160008282546104e19190611672565b92505081905550509750975097945050505050565b6000670de0b6b3a764000061050c60028261168a565b61051684866116c3565b6105209190611672565b61052a919061168a565b90505b92915050565b600080841161059e576040517f08c379a000000000000000000000000000000000000000000000000000000000815260206004820152601960248201527f4d6174684c69623a20494e53554646494349454e545f51545900000000000000604482015260640161040a565b6000831180156105ae5750600082115b610614576040517f08c379a000000000000000000000000000000000000000000000000000000000815260206004820152601f60248201527f4d6174684c69623a20494e53554646494349454e545f4c495155494449545900604482015260640161040a565b8261061f83866116c3565b610629919061168a565b949350505050565b60008060008584600001516106469190611700565b90508087106106b1576040517f08c379a000000000000000000000000000000000000000000000000000000000815260206004820152601b60248201527f4d6174684c69623a20494e53554646494349454e545f44454341590000000000604482015260640161040a565b808811156106c1578092506106c5565b8792505b60006106d985602001518660000151610848565b90506000670de0b6b3a76400006107016106f384886116c3565b670de0b6b3a7640000610e9e565b61070b919061168a565b90506000811161079d576040517f08c379a000000000000000000000000000000000000000000000000000000000815260206004820152602560248201527f4d6174684c69623a20494e53554646494349454e545f4348414e47455f494e5f60448201527f4445434159000000000000000000000000000000000000000000000000000000606482015260840161040a565b6000670de0b6b3a76400006107b284866116c3565b6107bc919061168a565b905060008111610828576040517f08c379a000000000000000000000000000000000000000000000000000000000815260206004820152601760248201527f4d6174684c69623a204e4f5f51554f54455f4445434159000000000000000000604482015260640161040a565b6108388989888a6000015161134c565b9450505050509550959350505050565b60008161085660028261168a565b610516670de0b6b3a7640000866116c3565b6000806108878360200151846000015161088291906116c3565b6113a2565b9050600061089884604001516113a2565b9050808211156108e35760006108ae8284611700565b6108b890876116c3565b90506000826108c88560056116c3565b6108d29190611672565b90506108de818361168a565b945050505b505092915050565b6000818310610905576108fe8284611700565b905061052d565b61052a8383611700565b61093a6040518060800160405280600081526020016000815260200160008152602001600081525090565b8215610bb85760408051606081018252835481526001840154602082015260028401549181019190915261096f908490610868565b606082018190526109809084611672565b92506109b58583604051806060016040529081600082015481526020016001820154815260200160028201548152505061108c565b15610b9857600080600084600001548811156109e3576109d98b60008a89896110d6565b9092509050610a20565b610a1a8c60008a89896040518060600160405290816000820154815260200160018201548152602001600282015481525050610631565b90935090505b8a82108015610a2e57508b83105b15610a7457610a67610a40848e611700565b610a4a848e611700565b600080610a57878d611672565b610a61878d611672565b8b610382565b6040870152602086015284525b8284600001818151610a869190611672565b905250602084018051839190610a9d908390611672565b905250604084018051829190610ab4908390611672565b90525083518a1115610b22576040517f08c379a000000000000000000000000000000000000000000000000000000000815260206004820152601e60248201527f4d6174684c69623a20494e53554646494349454e545f424153455f5154590000604482015260640161040a565b8884602001511015610b90576040517f08c379a000000000000000000000000000000000000000000000000000000000815260206004820152601f60248201527f4d6174684c69623a20494e53554646494349454e545f51554f54455f51545900604482015260640161040a565b505050610d2c565b610ba789898989888888610382565b604084015260208301528152610d2c565b60008911610c48576040517f08c379a000000000000000000000000000000000000000000000000000000000815260206004820152602660248201527f4d6174684c69623a20494e53554646494349454e545f424153455f5154595f4460448201527f4553495245440000000000000000000000000000000000000000000000000000606482015260840161040a565b60008811610cd8576040517f08c379a000000000000000000000000000000000000000000000000000000000815260206004820152602760248201527f4d6174684c69623a20494e53554646494349454e545f51554f54455f5154595f60448201527f4445534952454400000000000000000000000000000000000000000000000000606482015260840161040a565b88815260208101889052610cef610882898b6116c3565b6040820152805182548390600090610d08908490611672565b90915550506020810151600183018054600090610d26908490611672565b90915550505b98975050505050505050565b60008161061f85856116c3565b60008085118015610d565750600084115b610dbc576040517f08c379a000000000000000000000000000000000000000000000000000000000815260206004820152601f60248201527f4d6174684c69623a20494e53554646494349454e545f544f4b454e5f51545900604482015260640161040a565b610dd0858360000154846001015486611289565b9050838111610e61576040517f08c379a000000000000000000000000000000000000000000000000000000000815260206004820152602560248201527f4d6174684c69623a20494e53554646494349454e545f51554f54455f544f4b4560448201527f4e5f515459000000000000000000000000000000000000000000000000000000606482015260840161040a565b84826000016000828254610e759190611672565b9250508190555080826001016000828254610e909190611700565b909155509095945050505050565b60008180610ead60028261168a565b610eb79086611672565b610ec1919061168a565b61052a91906116c3565b60008084118015610edc5750815415155b610f67576040517f08c379a0000000000000000000000000000000000000000000000000000000008152602060048201526024808201527f4d6174684c69623a20494e53554646494349454e545f424153455f544f4b454e60448201527f5f51545900000000000000000000000000000000000000000000000000000000606482015260840161040a565b8154841015610fa9576000610f8483600001548460010154610848565b90506000610f928683610848565b9050610fa088828888611289565b92505050610fc0565b610fbd868360010154846000015486611289565b90505b84811161104e576040517f08c379a0000000000000000000000000000000000000000000000000000000008152602060048201526024808201527f4d6174684c69623a20494e53554646494349454e545f424153455f544f4b454e60448201527f5f51545900000000000000000000000000000000000000000000000000000000606482015260840161040a565b808260000160008282546110629190611700565b925050819055508582600101600082825461107d9190611672565b90915550909695505050505050565b6000670de0b6b3a76400006110cd670de0b6b3a76400006110b18686600001516108eb565b6110bb91906116c3565b61020a85600001518660200151610848565b10159392505050565b60008060008360000154866110eb9190611700565b9050600061110185600001548660010154610848565b9050600061110f8383610848565b905080891061117a576040517f08c379a000000000000000000000000000000000000000000000000000000000815260206004820152601b60248201527f4d6174684c69623a20494e53554646494349454e545f44454341590000000000604482015260640161040a565b808a111561118a5780945061118e565b8994505b6000670de0b6b3a76400006111a66106f385896116c3565b6111b0919061168a565b905060008111611242576040517f08c379a000000000000000000000000000000000000000000000000000000000815260206004820152602560248201527f4d6174684c69623a20494e53554646494349454e545f4348414e47455f494e5f60448201527f4445434159000000000000000000000000000000000000000000000000000000606482015260840161040a565b808760000160008282546112569190611672565b92505081905550858760010160008282546112719190611672565b925050819055506108388989888a60010154876112d9565b60008061129883612710611700565b6112a290876116c3565b9050806112b1612710876116c3565b6112bb9190611672565b6112c585836116c3565b6112cf919061168a565b9695505050505050565b6000806112e68784610848565b905060006112f48583611672565b905060006113028783610848565b9050670de0b6b3a764000061133561132361131d838c6116c3565b846104f6565b61020a84670de0b6b3a7640000611700565b61133f919061168a565b9998505050505050505050565b6000808361135a8785611672565b6113649190611672565b905060006113728583610848565b9050670de0b6b3a764000061138d61132361131d838a6116c3565b611397919061168a565b979650505050505050565b6000600382111561140357508060006113bc60028361168a565b6113c7906001611672565b90505b818110156113fd579050806002816113e2818661168a565b6113ec9190611672565b6113f6919061168a565b90506113ca565b50919050565b811561140d575060015b919050565b600060608284031215611423578081fd5b6040516060810181811067ffffffffffffffff8211171561146b577f4e487b710000000000000000000000000000000000000000000000000000000083526041600452602483fd5b80604052508091508235815260208301356020820152604083013560408201525092915050565b600080608083850312156114a4578182fd5b823591506114b58460208501611412565b90509250929050565b600080604083850312156114d0578182fd5b50508035926020909101359150565b6000806000606084860312156114f3578081fd5b505081359360208301359350604090920135919050565b6000806000806080858703121561151f578081fd5b5050823594602084013594506040840135936060013592509050565b6000806000806080858703121561151f578384fd5b600080600080600060e08688031215611567578081fd5b8535945060208601359350604086013592506060860135915061158d8760808801611412565b90509295509295909350565b600080600080600060a086880312156115b0578081fd5b505083359560208501359550604085013594606081013594506080013592509050565b600080600080600080600060e0888a0312156115ed578182fd5b505085359760208701359750604087013596606081013596506080810135955060a0810135945060c0013592509050565b600080600080600080600080610100898b03121561163a578182fd5b505086359860208801359850604088013597606081013597506080810135965060a0810135955060c0810135945060e0013592509050565b6000821982111561168557611685611717565b500190565b6000826116be577f4e487b710000000000000000000000000000000000000000000000000000000081526012600452602481fd5b500490565b6000817fffffffffffffffffffffffffffffffffffffffffffffffffffffffffffffffff04831182151516156116fb576116fb611717565b500290565b60008282101561171257611712611717565b500390565b7f4e487b7100000000000000000000000000000000000000000000000000000000600052601160045260246000fdfea26469706673582212201bbcdb5378b8f43e82443389aab10a9e5bfdb542e16fa82dbe29037d13ccb92464736f6c63430008040033",
  "linkReferences": {},
  "deployedLinkReferences": {}
}