{
  "_format": "hh-sol-artifact-1",
  "contractName": "MathLib",
  "sourceName": "src/libraries/MathLib.sol",
  "abi": [
    {
      "inputs": [],
      "name": "BASIS_POINTS",
      "outputs": [
        {
          "internalType": "uint256",
          "name": "",
          "type": "uint256"
        }
      ],
      "stateMutability": "view",
      "type": "function"
    },
    {
      "inputs": [],
      "name": "WAD",
      "outputs": [
        {
          "internalType": "uint256",
          "name": "",
          "type": "uint256"
        }
      ],
      "stateMutability": "view",
      "type": "function"
    },
    {
      "inputs": [
        {
          "internalType": "uint256",
          "name": "_baseTokenQtyDesired",
          "type": "uint256"
        },
        {
          "internalType": "uint256",
          "name": "_baseTokenQtyMin",
          "type": "uint256"
        },
        {
          "internalType": "uint256",
          "name": "_baseTokenReserveQty",
          "type": "uint256"
        },
        {
          "internalType": "uint256",
          "name": "_totalSupplyOfLiquidityTokens",
          "type": "uint256"
        },
        {
          "components": [
            {
              "internalType": "uint256",
              "name": "baseTokenReserveQty",
              "type": "uint256"
            },
            {
              "internalType": "uint256",
              "name": "quoteTokenReserveQty",
              "type": "uint256"
            },
            {
              "internalType": "uint256",
              "name": "kLast",
              "type": "uint256"
            }
          ],
          "internalType": "struct MathLib.InternalBalances",
          "name": "_internalBalances",
          "type": "tuple"
        }
      ],
      "name": "calculateAddBaseTokenLiquidityQuantities",
      "outputs": [
        {
          "internalType": "uint256",
          "name": "baseTokenQty",
          "type": "uint256"
        },
        {
          "internalType": "uint256",
          "name": "liquidityTokenQty",
          "type": "uint256"
        }
      ],
      "stateMutability": "view",
      "type": "function"
    },
    {
      "inputs": [
        {
          "internalType": "uint256",
          "name": "_totalSupplyOfLiquidityTokens",
          "type": "uint256"
        },
        {
          "components": [
            {
              "internalType": "uint256",
              "name": "baseTokenReserveQty",
              "type": "uint256"
            },
            {
              "internalType": "uint256",
              "name": "quoteTokenReserveQty",
              "type": "uint256"
            },
            {
              "internalType": "uint256",
              "name": "kLast",
              "type": "uint256"
            }
          ],
          "internalType": "struct MathLib.InternalBalances",
          "name": "_internalBalances",
          "type": "tuple"
        }
      ],
      "name": "calculateLiquidityTokenFees",
      "outputs": [
        {
          "internalType": "uint256",
          "name": "liquidityTokenFeeQty",
          "type": "uint256"
        }
      ],
      "stateMutability": "pure",
      "type": "function"
    },
    {
      "inputs": [
        {
          "internalType": "uint256",
          "name": "_totalSupplyOfLiquidityTokens",
          "type": "uint256"
        },
        {
          "internalType": "uint256",
          "name": "_quoteTokenQty",
          "type": "uint256"
        },
        {
          "internalType": "uint256",
          "name": "_quoteTokenReserveBalance",
          "type": "uint256"
        }
      ],
      "name": "calculateLiquidityTokenQtyForDoubleAssetEntry",
      "outputs": [
        {
          "internalType": "uint256",
          "name": "liquidityTokenQty",
          "type": "uint256"
        }
      ],
      "stateMutability": "pure",
      "type": "function"
    },
    {
      "inputs": [
        {
          "internalType": "uint256",
          "name": "_baseTokenReserveBalance",
          "type": "uint256"
        },
        {
          "internalType": "uint256",
          "name": "_totalSupplyOfLiquidityTokens",
          "type": "uint256"
        },
        {
          "internalType": "uint256",
          "name": "_tokenQtyAToAdd",
          "type": "uint256"
        },
        {
          "internalType": "uint256",
          "name": "_internalTokenAReserveQty",
          "type": "uint256"
        },
        {
          "internalType": "uint256",
          "name": "_tokenBDecayChange",
          "type": "uint256"
        },
        {
          "internalType": "uint256",
          "name": "_tokenBDecay",
          "type": "uint256"
        },
        {
          "internalType": "uint256",
          "name": "_omega",
          "type": "uint256"
        }
      ],
      "name": "calculateLiquidityTokenQtyForSingleAssetEntry",
      "outputs": [
        {
          "internalType": "uint256",
          "name": "liquidityTokenQty",
          "type": "uint256"
        }
      ],
      "stateMutability": "view",
      "type": "function"
    },
    {
      "inputs": [
        {
          "internalType": "uint256",
          "name": "_baseTokenReserveBalance",
          "type": "uint256"
        },
        {
          "internalType": "uint256",
          "name": "_totalSupplyOfLiquidityTokens",
          "type": "uint256"
        },
        {
          "internalType": "uint256",
          "name": "_tokenQtyAToAdd",
          "type": "uint256"
        },
        {
          "internalType": "uint256",
          "name": "_internalTokenAReserveQty",
          "type": "uint256"
        },
        {
          "internalType": "uint256",
          "name": "_tokenBDecayChange",
          "type": "uint256"
        },
        {
          "internalType": "uint256",
          "name": "_tokenBDecay",
          "type": "uint256"
        },
        {
          "internalType": "uint256",
          "name": "_omega",
          "type": "uint256"
        }
      ],
      "name": "calculateLiquidityTokenQtyForSingleAssetEntryForQuoteTokenDecay",
      "outputs": [
        {
          "internalType": "uint256",
          "name": "liquidityTokenQty",
          "type": "uint256"
        }
      ],
      "stateMutability": "view",
      "type": "function"
    },
    {
      "inputs": [
        {
          "internalType": "uint256",
          "name": "_tokenAQty",
          "type": "uint256"
        },
        {
          "internalType": "uint256",
          "name": "_tokenAReserveQty",
          "type": "uint256"
        },
        {
          "internalType": "uint256",
          "name": "_tokenBReserveQty",
          "type": "uint256"
        }
      ],
      "name": "calculateQty",
      "outputs": [
        {
          "internalType": "uint256",
          "name": "tokenBQty",
          "type": "uint256"
        }
      ],
      "stateMutability": "pure",
      "type": "function"
    },
    {
      "inputs": [
        {
          "internalType": "uint256",
          "name": "_tokenASwapQty",
          "type": "uint256"
        },
        {
          "internalType": "uint256",
          "name": "_tokenAReserveQty",
          "type": "uint256"
        },
        {
          "internalType": "uint256",
          "name": "_tokenBReserveQty",
          "type": "uint256"
        },
        {
          "internalType": "uint256",
          "name": "_liquidityFeeInBasisPoints",
          "type": "uint256"
        }
      ],
      "name": "calculateQtyToReturnAfterFees",
      "outputs": [
        {
          "internalType": "uint256",
          "name": "qtyToReturn",
          "type": "uint256"
        }
      ],
      "stateMutability": "pure",
      "type": "function"
    },
    {
      "inputs": [
        {
          "internalType": "uint256",
          "name": "a",
          "type": "uint256"
        },
        {
          "internalType": "uint256",
          "name": "b",
          "type": "uint256"
        }
      ],
      "name": "diff",
      "outputs": [
        {
          "internalType": "uint256",
          "name": "",
          "type": "uint256"
        }
      ],
      "stateMutability": "pure",
      "type": "function"
    },
    {
      "inputs": [
        {
          "internalType": "uint256",
          "name": "_baseTokenReserveQty",
          "type": "uint256"
        },
        {
          "components": [
            {
              "internalType": "uint256",
              "name": "baseTokenReserveQty",
              "type": "uint256"
            },
            {
              "internalType": "uint256",
              "name": "quoteTokenReserveQty",
              "type": "uint256"
            },
            {
              "internalType": "uint256",
              "name": "kLast",
              "type": "uint256"
            }
          ],
          "internalType": "struct MathLib.InternalBalances",
          "name": "_internalBalances",
          "type": "tuple"
        }
      ],
      "name": "isSufficientDecayPresent",
      "outputs": [
        {
          "internalType": "bool",
          "name": "",
          "type": "bool"
        }
      ],
      "stateMutability": "pure",
      "type": "function"
    },
    {
      "inputs": [
        {
          "internalType": "uint256",
          "name": "a",
          "type": "uint256"
        },
        {
          "internalType": "uint256",
          "name": "n",
          "type": "uint256"
        }
      ],
      "name": "roundToNearest",
      "outputs": [
        {
          "internalType": "uint256",
          "name": "",
          "type": "uint256"
        }
      ],
      "stateMutability": "pure",
      "type": "function"
    },
    {
      "inputs": [
        {
          "internalType": "uint256",
          "name": "a",
          "type": "uint256"
        },
        {
          "internalType": "uint256",
          "name": "b",
          "type": "uint256"
        }
      ],
      "name": "wDiv",
      "outputs": [
        {
          "internalType": "uint256",
          "name": "",
          "type": "uint256"
        }
      ],
      "stateMutability": "pure",
      "type": "function"
    },
    {
      "inputs": [
        {
          "internalType": "uint256",
          "name": "a",
          "type": "uint256"
        },
        {
          "internalType": "uint256",
          "name": "b",
          "type": "uint256"
        }
      ],
      "name": "wMul",
      "outputs": [
        {
          "internalType": "uint256",
          "name": "",
          "type": "uint256"
        }
      ],
      "stateMutability": "pure",
      "type": "function"
    }
  ],
  "bytecode": "0x611aa161003a600b82828239805160001a60731461002d57634e487b7160e01b600052600060045260246000fd5b30600052607381538281f3fe730000000000000000000000000000000000000000301460806040526004361061015b5760003560e01c80638f5e514a116100d7578063c131f4171161008b578063cb11d2c611610070578063cb11d2c614610346578063e1f1c4a714610366578063ede3df671461036f57600080fd5b8063c131f41714610303578063ca7c6a021461032357600080fd5b80639e4fa204116100bc5780639e4fa204146102bd578063af22e864146102d0578063bd244c35146102f057600080fd5b80638f5e514a146102575780639d372a7b1461026a57600080fd5b8063542f45b21161012e5780635b3cce64116101135780635b3cce64146102225780636a146024146102355780636cb4024b1461024457600080fd5b8063542f45b2146101e7578063578aefbb146101fa57600080fd5b806302af65fa1461016057806308bce20d146101a057806318e2e822146101c157806330ed1f5d146101d4575b600080fd5b81801561016c57600080fd5b5061018061017b366004611830565b610382565b604080519384526020840192909252908201526060015b60405180910390f35b6101b36101ae36600461187b565b610535565b604051908152602001610197565b6101b36101cf36600461187b565b610624565b6101b36101e236600461171b565b6106ff565b6101b36101f536600461173c565b61073c565b61020d6102083660046117ad565b61083a565b60408051928352602083019190915201610197565b6101b361023036600461171b565b610aa6565b6101b3670de0b6b3a764000081565b6101b36102523660046116ef565b610ac6565b6101b361026536600461171b565b610b49565b81801561027657600080fd5b5061028a610285366004611895565b610b6d565b60405161019791908151815260208083015190820152604080830151908201526060918201519181019190915260800190565b6101b36102cb36600461173c565b610f96565b8180156102dc57600080fd5b506101b36102eb366004611767565b610fa3565b6101b36102fe36600461171b565b6110fc565b81801561030f57600080fd5b506101b361031e3660046117f6565b611129565b6103366103313660046116ef565b6112ea565b6040519015158152602001610197565b81801561035257600080fd5b5061020d6103613660046117f6565b611334565b6101b361271081565b6101b361037d366004611798565b6114f9565b60008060008061039b8b8660000154876001015461073c565b905089811161041e5787811015610413576040517f08c379a000000000000000000000000000000000000000000000000000000000815260206004820152601f60248201527f4d6174684c69623a20494e53554646494349454e545f51554f54455f5154590060448201526064015b60405180910390fd5b8a93508092506104a5565b60006104338b8760010154886000015461073c565b90508981101561049f576040517f08c379a000000000000000000000000000000000000000000000000000000000815260206004820152601e60248201527f4d6174684c69623a20494e53554646494349454e545f424153455f5154590000604482015260640161040a565b93508992505b6104b0868489610f96565b91506104f16040518060400160405280600d81526020017f736f6c69646974793a204441450000000000000000000000000000000000000081525083611549565b838560000160008282546105059190611962565b92505081905550828560010160008282546105209190611962565b92505081905550509750975097945050505050565b600080866105438a88611962565b61054d9190611962565b9050600061055b8883610aa6565b905061059c6040518060400160405280600881526020017f7747616d6d613a2000000000000000000000000000000000000000000000000081525082611549565b6105db6040518060400160405280601381526020017f6c6971756964697479546f6b656e5174793a200000000000000000000000000081525084611549565b670de0b6b3a764000061060c6105fa6105f4838d6119b3565b846106ff565b61023084670de0b6b3a76400006119f0565b610616919061197a565b9a9950505050505050505050565b6000806106318984610aa6565b9050600061063f8783611962565b9050600061064d8983610aa6565b905061068e6040518060400160405280600881526020017f7747616d6d613a2000000000000000000000000000000000000000000000000081525082611549565b6106cd6040518060400160405280601381526020017f6c6971756964697479546f6b656e5174793a200000000000000000000000000081525085611549565b670de0b6b3a76400006106e66105fa6105f4838e6119b3565b6106f0919061197a565b9b9a5050505050505050505050565b6000670de0b6b3a764000061071560028261197a565b61071f84866119b3565b6107299190611962565b610733919061197a565b90505b92915050565b60008084116107a7576040517f08c379a000000000000000000000000000000000000000000000000000000000815260206004820152601960248201527f4d6174684c69623a20494e53554646494349454e545f51545900000000000000604482015260640161040a565b6000831180156107b75750600082115b61081d576040517f08c379a000000000000000000000000000000000000000000000000000000000815260206004820152601f60248201527f4d6174684c69623a20494e53554646494349454e545f4c495155494449545900604482015260640161040a565b8261082883866119b3565b610832919061197a565b949350505050565b600080600085846000015161084f91906119f0565b90508087106108ba576040517f08c379a000000000000000000000000000000000000000000000000000000000815260206004820152601b60248201527f4d6174684c69623a20494e53554646494349454e545f44454341590000000000604482015260640161040a565b808811156108ca578092506108ce565b8792505b60006108e285602001518660000151610aa6565b90506000670de0b6b3a764000061090a6108fc84886119b3565b670de0b6b3a76400006110fc565b610914919061197a565b9050600081116109a6576040517f08c379a000000000000000000000000000000000000000000000000000000000815260206004820152602560248201527f4d6174684c69623a20494e53554646494349454e545f4348414e47455f494e5f60448201527f4445434159000000000000000000000000000000000000000000000000000000606482015260840161040a565b6000670de0b6b3a76400006109bb84866119b3565b6109c5919061197a565b905060008111610a31576040517f08c379a000000000000000000000000000000000000000000000000000000000815260206004820152601760248201527f4d6174684c69623a204e4f5f51554f54455f4445434159000000000000000000604482015260640161040a565b6000610a4588600001518960200151610aa6565b9050610a5a8a8a898b60000151878787610624565b95506000610a718b8b8a8c60000151888888610535565b9050610a95604051806060016040528060358152602001611a376035913982611549565b955050505050509550959350505050565b600081610ab460028261197a565b61071f670de0b6b3a7640000866119b3565b600080610ae583602001518460000151610ae091906119b3565b6115de565b90506000610af684604001516115de565b905080821115610b41576000610b0c82846119f0565b610b1690876119b3565b9050600082610b268560056119b3565b610b309190611962565b9050610b3c818361197a565b945050505b505092915050565b6000818310610b6357610b5c82846119f0565b9050610736565b61073383836119f0565b610b986040518060800160405280600081526020016000815260200160008152602001600081525090565b8215610e1657604080516060810182528354815260018401546020820152600284015491810191909152610bcd908490610ac6565b60608201819052610bde9084611962565b9250610c13858360405180606001604052908160008201548152602001600182015481526020016002820154815250506112ea565b15610df65760008060008460000154881115610c4157610c378b60008a8989611334565b9092509050610c7e565b610c788c60008a8989604051806060016040529081600082015481526020016001820154815260200160028201548152505061083a565b90935090505b8a82108015610c8c57508b83105b15610cd257610cc5610c9e848e6119f0565b610ca8848e6119f0565b600080610cb5878d611962565b610cbf878d611962565b8b610382565b6040870152602086015284525b8284600001818151610ce49190611962565b905250602084018051839190610cfb908390611962565b905250604084018051829190610d12908390611962565b90525083518a1115610d80576040517f08c379a000000000000000000000000000000000000000000000000000000000815260206004820152601e60248201527f4d6174684c69623a20494e53554646494349454e545f424153455f5154590000604482015260640161040a565b8884602001511015610dee576040517f08c379a000000000000000000000000000000000000000000000000000000000815260206004820152601f60248201527f4d6174684c69623a20494e53554646494349454e545f51554f54455f51545900604482015260640161040a565b505050610f8a565b610e0589898989888888610382565b604084015260208301528152610f8a565b60008911610ea6576040517f08c379a000000000000000000000000000000000000000000000000000000000815260206004820152602660248201527f4d6174684c69623a20494e53554646494349454e545f424153455f5154595f4460448201527f4553495245440000000000000000000000000000000000000000000000000000606482015260840161040a565b60008811610f36576040517f08c379a000000000000000000000000000000000000000000000000000000000815260206004820152602760248201527f4d6174684c69623a20494e53554646494349454e545f51554f54455f5154595f60448201527f4445534952454400000000000000000000000000000000000000000000000000606482015260840161040a565b88815260208101889052610f4d610ae0898b6119b3565b6040820152805182548390600090610f66908490611962565b90915550506020810151600183018054600090610f84908490611962565b90915550505b98975050505050505050565b60008161082885856119b3565b60008085118015610fb45750600084115b61101a576040517f08c379a000000000000000000000000000000000000000000000000000000000815260206004820152601f60248201527f4d6174684c69623a20494e53554646494349454e545f544f4b454e5f51545900604482015260640161040a565b61102e8583600001548460010154866114f9565b90508381116110bf576040517f08c379a000000000000000000000000000000000000000000000000000000000815260206004820152602560248201527f4d6174684c69623a20494e53554646494349454e545f51554f54455f544f4b4560448201527f4e5f515459000000000000000000000000000000000000000000000000000000606482015260840161040a565b848260000160008282546110d39190611962565b92505081905550808260010160008282546110ee91906119f0565b909155509095945050505050565b6000818061110b60028261197a565b6111159086611962565b61111f919061197a565b61073391906119b3565b6000808411801561113a5750815415155b6111c5576040517f08c379a0000000000000000000000000000000000000000000000000000000008152602060048201526024808201527f4d6174684c69623a20494e53554646494349454e545f424153455f544f4b454e60448201527f5f51545900000000000000000000000000000000000000000000000000000000606482015260840161040a565b81548410156112075760006111e283600001548460010154610aa6565b905060006111f08683610aa6565b90506111fe888288886114f9565b9250505061121e565b61121b8683600101548460000154866114f9565b90505b8481116112ac576040517f08c379a0000000000000000000000000000000000000000000000000000000008152602060048201526024808201527f4d6174684c69623a20494e53554646494349454e545f424153455f544f4b454e60448201527f5f51545900000000000000000000000000000000000000000000000000000000606482015260840161040a565b808260000160008282546112c091906119f0565b92505081905550858260010160008282546112db9190611962565b90915550909695505050505050565b6000670de0b6b3a764000061132b670de0b6b3a764000061130f868660000151610b49565b61131991906119b3565b61023085600001518660200151610aa6565b10159392505050565b600080600083600001548661134991906119f0565b9050600061135f85600001548660010154610aa6565b9050600061136d8383610aa6565b90508089106113d8576040517f08c379a000000000000000000000000000000000000000000000000000000000815260206004820152601b60248201527f4d6174684c69623a20494e53554646494349454e545f44454341590000000000604482015260640161040a565b808a11156113e8578094506113ec565b8994505b6000670de0b6b3a76400006114046108fc85896119b3565b61140e919061197a565b9050600081116114a0576040517f08c379a000000000000000000000000000000000000000000000000000000000815260206004820152602560248201527f4d6174684c69623a20494e53554646494349454e545f4348414e47455f494e5f60448201527f4445434159000000000000000000000000000000000000000000000000000000606482015260840161040a565b808760000160008282546114b49190611962565b92505081905550858760010160008282546114cf9190611962565b925050819055506114e98989888a60010154858989610624565b9450505050509550959350505050565b600080611508836127106119f0565b61151290876119b3565b905080611521612710876119b3565b61152b9190611962565b61153585836119b3565b61153f919061197a565b9695505050505050565b6115da828260405160240161155f9291906118e9565b604080517fffffffffffffffffffffffffffffffffffffffffffffffffffffffffffffffe08184030181529190526020810180517bffffffffffffffffffffffffffffffffffffffffffffffffffffffff167f9710a9d00000000000000000000000000000000000000000000000000000000017905261164e565b5050565b6000600382111561163f57508060006115f860028361197a565b611603906001611962565b90505b818110156116395790508060028161161e818661197a565b6116289190611962565b611632919061197a565b9050611606565b50919050565b8115611649575060015b919050565b80516a636f6e736f6c652e6c6f67602083016000808483855afa5050505050565b600060608284031215611680578081fd5b6040516060810181811067ffffffffffffffff821117156116c8577f4e487b710000000000000000000000000000000000000000000000000000000083526041600452602483fd5b80604052508091508235815260208301356020820152604083013560408201525092915050565b60008060808385031215611701578182fd5b82359150611712846020850161166f565b90509250929050565b6000806040838503121561172d578182fd5b50508035926020909101359150565b600080600060608486031215611750578081fd5b505081359360208301359350604090920135919050565b6000806000806080858703121561177c578081fd5b5050823594602084013594506040840135936060013592509050565b6000806000806080858703121561177c578384fd5b600080600080600060e086880312156117c4578081fd5b853594506020860135935060408601359250606086013591506117ea876080880161166f565b90509295509295909350565b600080600080600060a0868803121561180d578081fd5b505083359560208501359550604085013594606081013594506080013592509050565b600080600080600080600060e0888a03121561184a578182fd5b505085359760208701359750604087013596606081013596506080810135955060a0810135945060c0013592509050565b600080600080600080600060e0888a03121561184a578283fd5b600080600080600080600080610100898b0312156118b1578182fd5b505086359860208801359850604088013597606081013597506080810135965060a0810135955060c0810135945060e0013592509050565b6040815260008351806040840152815b8181101561191657602081870181015160608684010152016118f9565b818111156119275782606083860101525b50602083019390935250601f919091017fffffffffffffffffffffffffffffffffffffffffffffffffffffffffffffffe01601606001919050565b6000821982111561197557611975611a07565b500190565b6000826119ae577f4e487b710000000000000000000000000000000000000000000000000000000081526012600452602481fd5b500490565b6000817fffffffffffffffffffffffffffffffffffffffffffffffffffffffffffffffff04831182151516156119eb576119eb611a07565b500290565b600082821015611a0257611a02611a07565b500390565b7f4e487b7100000000000000000000000000000000000000000000000000000000600052601160045260246000fdfe6e6577204c50207761793a20287573696e67207468652072656261736520646f776e20736f6c7574696f6e2066726f6d2063342920a264697066735822122096736011d2e8287e7939234d5aef5536def1ea1169caf7ae3d5b8d335722e12664736f6c63430008040033",
  "linkReferences": {},
  "deployedLinkReferences": {}
}